:020000041000EA
:1000000000B5324B212058609868022188439860DF
:10001000D860186158612E4B002199600221596106
:100020000121F02299502B49196001219960352056
:1000300000F044F80222904214D00621196600F024
:1000400034F8196E01211966002018661A6600F04E
:100050002CF8196E196E196E052000F02FF8012189
:100060000842F9D1002199601B49196000215960AB
:100070001A491B48016001219960EB211966A021F2
:10008000196600F012F800219960164914480160C1
:100090000121996001BC002800D000471248134993
:1000A000086003C880F30888084703B5996A0420EC
:1000B0000142FBD001200142F8D103BD02B5186610
:1000C0001866FFF7F2FF186E186E02BD00000240BE
:1000D000000000180000070000035F00212200005C
:1000E000F4000018222000A00001001008ED00E03C
:1000F00000000000000000000000000074B24E7A12
:1001000000200420F7010010C3010010C5010010F9
:10011000C1010010C1010010C1010010C101001097
:10012000C1010010C1010010C1010010C701001081
:10013000C1010010C1010010C9010010CB01001065
:10014000CD010010CD010010CD010010CD01001037
:10015000CD010010CD010010CD010010CD01001027
:10016000CD010010CD010010CD010010CD01001017
:10017000CD010010CD010010CD010010CD01001007
:10018000CD010010CD010010CD010010CD010010F7
:10019000CD010010CD010010CD010010CD010010E7
:1001A000CD010010CD010010CD010010CD010010D7
:1001B000CD010010CD010010CD010010CD010010C7
:1001C00000BE00BE00BE00BE00BE00BEEFF3058054
:1001D000103800BEF2EB8871D49400100095001026
:1001E0003802001090A31AE71E481F49086006C88D
:1001F00081F3088810471D480068002801D019487D
:10020000F3E70DA40ECC002902D000F012F8F9E7B4
:100210001749184A002000E001C19142FCD116495B
:100220008847164988471649884700BEFDE701C937
:1002300001C29A42FBD3704700950010C000002015
:10024000080300204897001000000420000004204C
:100250004897001000100420001004200000000047
:10026000704700000000000008ED00E0000000D032
:1002700008030020300B0220FD860010D50400107A
:10028000F5860010F8B5C0460448054B10B583420A
:1002900003D0044B002B00D0984710BD080300206A
:1002A000080300200000000006480749091A8B10C7
:1002B000C90FC91810B5491003D0044B002B00D04A
:1002C000984710BD0803002008030020000000002C
:1002D00010B5074C2378002B09D1FFF7D5FF054B4C
:1002E000002B02D0044800E000BF0123237010BDA2
:1002F00000070020000000005C8F0010054B10B5C7
:10030000002B03D00449054800E000BFFFF7CCFFF5
:1003100010BDC04600000000040700205C8F0010E4
:10032000F0B5C646D025802700B5104808F07AFB06
:10033000192004F0EDFF0E4B2D06BF040024984653
:100340000C4E6F6206E06F61FA20012340005C40B2
:1003500005F034FD296833688B4203D04046316094
:1003600008F0EAFB002CEED1AF61EDE7608F0010E2
:10037000748F001030020020F0B5CE46474680B59D
:1003800089B005AB1900214A31CA31C102A90A005E
:1003900031CB31C21E4C200000F0E0FC431E9841DE
:1003A0004042044005F0D6FC0B1E2BDB1949D02738
:1003B000CB60236888605B69200098470023802217
:1003C000019301330093144900231448920003F071
:1003D0005BFC134B00249946124B134E98463F0684
:1003E000396833688B4203D04846316008F0A4FB7B
:1003F0002100404608F0A0FB651C0C4803F0DAFF22
:100400002C00EDE701200A4B4042CFE7449000105A
:100410000803002038020020908F001021030010F4
:100420009C8F0010B88F001028020020B80B00002D
:10043000FFFFFF7F70B504000D0005F08BFC00236B
:10044000114A12184B41002B19DBAA60EB6023689C
:1004500029005B69200098470C4B0D4819684A1C1D
:100460001A6008F069FBD0231B061968094B1A684B
:100470008A4203D00848196008F05EFB70BD012273
:10048000064B5242E1E7C046809698005407002090
:10049000D88F00102C020020F48F0010FFFFFF7F88
:1004A00000B585B003AB0193802202239200009334
:1004B00006490023064803F0E7FB0121039802F0F8
:1004C000ABFA03F075FD05B000BDC0460C900010FE
:1004D0007903001010B508F053FA00F00DF8044944
:1004E000044808F029FBFFF7DBFF002010BDC046E1
:1004F0001890001028900010F0B5DE4657464E4682
:100500004546E0B5464C4748A544474C08F08AFAB2
:100510004649200008F00EFC02234A204449626844
:100520000B6088462168434F4840CF210140424834
:100530001A40016041463A6062680B601A4002331B
:100540003B6001213A60102004F0C8FE0121122016
:1005500004F0C4FE0121132004F0C0FE374B022634
:100560009B46374B9A46374B99461BE06F2008F065
:100570000DFA2100504608F0DFFA6B461B881E4238
:1005800043D1502008F002FA6B461B88DB0743D4A6
:100590002D4808F0D1FA2900484608F0CDFA434624
:1005A0001E603E606A46012300211F4808F0A4FC3B
:1005B0006B465846198808F0BFFA6B4640221B88E4
:1005C0009C08E4B2E509224201D03E3A1543A20656
:1005D00001D504221543E20601D50822154322075E
:1005E00001D510221543620701D52022154326426A
:1005F00001D040221543E20701D5802215435B0557
:10060000B4D5782008F0C2F9B3E7582008F0BEF955
:100610006B461B88DB07BBD50C4808F08DFABAE7A0
:10062000FCFDFFFF5090001000C0034000350C009F
:1006300004F0034004E0034000D003406490001045
:100640007090001080900010789000107C90001046
:1006500031230122C25400207047C0467047C04673
:10066000012110B549420400006A01F07FFD3022EB
:10067000A35C0133A35410BD10B54B6988690C000D
:1006800098470023E06100220021206901F02CFA44
:1006900010BDC04670B514001D0005F05BFB241AA8
:1006A0008D41002D03DD104803F084FE70BD002D48
:1006B00017D1002C15D00D4B9C42F4D8FA210C4BCD
:1006C0008900E01805F09AFEFA220023920000212A
:1006D00006F0B6FCFA220023920005F0CDFE0130B0
:1006E000E2E70020E0E7C04661EA000000879303EC
:1006F000E703000010B5C36A040082B0002B04D0E9
:10070000036802001B690E499847A06A002805D0BB
:10071000002300220521009304F064FC206A0028D5
:1007200001D001F03BFD606A002801D001F036FDE8
:1007300038220021200006F0EDFC02B010BDC046BA
:1007400051060010F0B504008BB0006A0E001500D1
:1007500001F0BCF9070002F0D3FF874227D0154B08
:1007600003220021012003930796089501F05EF90A
:100770002368069002A92000DB69984723682000BF
:1007800002A95B6A98470121069B49421800019320
:1007900001F044FC236802A920001B6A9847069BCD
:1007A0001800019301F0FAFC09980BB0F0BD05F0B8
:1007B0000BFDD4E779060010F8B5070014001D0002
:1007C0001E001D4B5A6A964205D89B6AA34200D36D
:1007D000F8BD9642FCD105F0BDFA22002B00121A9A
:1007E0008B411000002B06DD1449786A01F016FCDD
:1007F0000028E6D0ECE7002BEAD1002AE8D0104B25
:100800009A42F1D80F4BFA219C468900604405F0CA
:10081000F5FDFA2200239200002106F011FCFA22D5
:100820000023920005F028FE411C786A01F0F6FBD7
:100830000028C6D0CCE7C0460040054061EA000071
:1008400000879303E7030000F0B5C6461F4B060080
:100850001F685B6800B5984682B0300000F024FB4A
:1008600004000D00B84201D141452CD005F072FAC8
:10087000241A8D41002D0CDD154A00230421B06A95
:10088000009204F0AFFB0028E7D002B080BCB8466D
:10089000F0BD002DE1D1002CDFD00E4B9C42EBD8F7
:1008A000FA210D4B8900E01805F0A8FDFA2200237B
:1008B0009200002106F0C4FBFA220023920005F00A
:1008C000DBFD421CD9E701225242D6E770910010AD
:1008D00061EA000000879303E703000070B530254C
:1008E000435D040082B0012B06D0013B6355206AB2
:1008F00001F016FA02B070BDC66A02F001FF86422E
:1009000029D0635D013B6355206A01F009FAE06A72
:100910000028EFD0EFF30585EDB2002D12D102F0E3
:10092000EFFEE66A8642E5D0022300220021300075
:10093000009503F065FF002300220021606A01F0AA
:10094000D3F8D7E70022002104F04EF80021606AB6
:1009500001F098FACEE72000FFF776FF635DC4E769
:10096000012370B50400C06A82B00B7200280CD05D
:10097000EFF30585EDB2002D09D00021002204F02F
:1009800033F80021606A01F07DFA02B070BD02F018
:10099000B7FEE66A8642F8D002230022002130002A
:1009A000009503F02DFF002300220021606A01F072
:1009B0009BF8EAE770B582B004F036FB0400C06A29
:1009C00000280CD0EFF30585EDB2002D09D00021F1
:1009D000002204F009F80021606A01F053FA02B025
:1009E00070BD02F08DFEE66A8642F8D00223002236
:1009F00000213000009503F003FF002300220021B6
:100A0000606A01F071F8EAE7F0B50400312630259C
:100A100083B008E0013B6355206A01F081F940BFD3
:100A2000A35D002B35D1012200210020524203F0AA
:100A30003DFEA35D002B2CD10121206A494201F02B
:100A400095FB635D200001336355FFF7FDFE635D99
:100A5000012BDFD1E76A02F053FE874231D0635D9C
:100A6000013B6355206A01F05BF9E06A0028D6D0AB
:100A7000EFF30587FFB2002F10D00022002103F012
:100A8000B3FF0021606A01F0FDF940BFA35D002BB8
:100A9000C9D0002003F032FB03B0F0BD02F030FEFD
:100AA0000300E06A9842BAD0022300220021009796
:100AB00003F0A6FE002300220021606A01F014F872
:100AC000ADE72000FFF7C0FE635DA3E7F0B50E00C1
:100AD00001210400302583B04942006A01F046FB41
:100AE000635D310001336355200000F0A3F9635DBD
:100AF0000600012B07D0013B6355206A01F010F975
:100B0000300003B0F0BDE76A02F0FAFD874229D059
:100B1000635D013B6355206A01F002F9E06A002839
:100B2000EED0EFF30585EDB2002D12D102F0E8FD15
:100B3000E76A8742E4D002230022002138000095B2
:100B400003F05EFE002300220021606A00F0CCFF6B
:100B5000D6E70022002103F047FF0021606A01F080
:100B600091F9CDE72000FFF76FFE635DC3E7C04654
:100B7000F0B50E0001210400302583B04942006A1F
:100B800001F0F4FA635D310001336355200000F099
:100B900065F9635D0600012B07D0013B6355206AB0
:100BA00001F0BEF8300003B0F0BDE76A02F0A8FD26
:100BB000874229D0635D013B6355206A01F0B0F89C
:100BC000E06A0028EED0EFF30585EDB2002D12D1DA
:100BD00002F096FDE76A8742E4D00223002200215A
:100BE0003800009503F00CFE002300220021606A0B
:100BF00000F07AFFD6E70022002103F0F5FE002185
:100C0000606A01F03FF9CDE72000FFF71DFE635D4C
:100C1000C3E7C046F0B50E0001210400302583B0C3
:100C20004942006A01F0A2FA635D31000133635565
:100C3000200000F025F9635D0600012B07D0013B81
:100C40006355206A01F06CF8300003B0F0BDE76A2C
:100C500002F056FD874229D0635D013B6355206A4F
:100C600001F05EF8E06A0028EED0EFF30585EDB202
:100C7000002D12D102F044FDE76A8742E4D002233E
:100C8000002200213800009503F0BAFD0023002265
:100C90000021606A00F028FFD6E70022002103F05F
:100CA000A3FE0021606A01F0EDF8CDE72000FFF718
:100CB000CBFD635DC3E7C046F0B50E000121040023
:100CC000302583B04942006A01F050FA635D31007B
:100CD00001336355200000F099F8635D0600012B95
:100CE00007D0013B6355206A01F01AF8300003B0C9
:100CF000F0BDE76A02F004FD874229D0635D013B45
:100D00006355206A01F00CF8E06A0028EED0EFF39A
:100D10000585EDB2002D12D102F0F2FCE76A8742A0
:100D2000E4D00223002200213800009503F068FD82
:100D3000002300220021606A00F0D6FED6E70022E0
:100D4000002103F051FE0021606A01F09BF8CDE71D
:100D50002000FFF779FD635DC3E7C04670B504006E
:100D600082B034220D000430002106F0D3F9224B6A
:100D7000D026236001233606238333680420A3761C
:100D800000F098FF032200212062012000F04EFEB7
:100D900001211A4B60620093002223001848494247
:100DA00004F0C4F8236AA062002B1BD0636A002BF6
:100DB00018D0002816D023002C3301932B686A68C2
:100DC000009310492300104802F05EFF012809D16A
:100DD000AB685A1C0DD00121E06A994001F01CFE5D
:100DE000012004E0236820005B6B9847002002B0DC
:100DF00070BD3368EFE7C046C0900010B509001021
:100E000098900010AC900010090A0010020083684E
:100E10000832002B04D107E01A001B68002B03D016
:100E20009942F9D1002003E00023012011600B60FA
:100E30007047C0468368002B08D0994202D107E072
:100E4000994207D01A001B68002BF9D10020704787
:100E5000020008320B6801201360F8E74368021DA6
:100E6000002B04D107E01A001B68002B03D0994225
:100E7000F9D1002003E00023012011600B607047CE
:100E80004368002B08D0994202D107E0994206D06E
:100E90001A001B68002BF9D100207047021D0B6857
:100EA00001201360F9E7C046F8B54746CE4683688F
:100EB000804680B5002B29D008234344994604F08E
:100EC00049FF43469E6804000D00002E58D00023C1
:100ED0004F469C46B268F36820002900801A994169
:100EE000002902DB14001D00BC4637003668002EC6
:100EF000F0D16346002B43D0196840460A681A6057
:100F00004B68984743469B68002BD8D143465C68A2
:100F1000002C31D00025237A002B29D021006368D2
:100F20002572404698472468002CF4D1174B186866
:100F3000596843469E68002E04D112E02000290023
:100F4000002E0ED0330002009C68DD680B00121BDF
:100F5000AB413668002BF1DCF2D1002AEED1002E35
:100F6000F0D1434618615961C0BCB946B046F8BDDE
:100F70002468002CCFD1D9E7044B18685968F0E7F2
:100F800043465C68002CC5D1D0E7C0467091001084
:100F90000FB400B5084883B007F044FD049B002B54
:100FA00007D005A91800019107F08AFB034807F054
:100FB00039FD012007F09CFBF89000108C8F001089
:100FC00010B50148FFF7E4FF08910010F0B5C646E0
:100FD000431E00B50A3314D807231A000830040052
:100FE0000240034205D001339B1ADA43824208D300
:100FF000C41801F0D3FD344A27001568002D29D10B
:101000000EE001F0CBFD304A1368002B06D000251E
:1010100003F0C4F9280080BCB846F0BD00270024C6
:1010200007202A49084248D180239B02CD18080096
:101030000B000021264E083D716030600726B54345
:101040001560244AEB1A1360234A69602960136013
:1010500043600560002FDADD1F4F3E68A642D6D3FD
:101060001B48036804E01A68002A04D01800130023
:101070005968A142F7D3AB42C9D01D001A680835A0
:10108000904602600A1B102A05D919194A60424687
:101090000A60016021000F4A761A10683E6086429D
:1010A00000D2166080221206114300221A600B4AF9
:1010B0005960136801331360AAE7CB1D8343802076
:1010C00080020D181800B4E784070020280A0020C9
:1010D000E80A0220B80A0220A80A0220C40A022054
:1010E00070B5002807D0083843680400002B02DAE6
:1010F0000268002A00D070BD5B005B0843600500F9
:1011000001F04CFD154A616813685B181360144BBD
:101110001A001B689C42FBD850681618B44218D0BD
:10112000681883420AD02B60AA4200D015600D4A8D
:1011300013680133136003F031F9DCE70A480068F3
:101140008342F0D058681B688446614469602B6014
:10115000EAE7091815005160E2E7C046A80A022034
:10116000E80A0220C80A0220840700207047C0460F
:101170000BA10CC9126892009B581868203080F3AC
:101180000988022080F31488BFF36F8F3FBCAE46FE
:1011900008BC04BC62B61847C046C046C046C0463C
:1011A000000000D074070020D0231B061A6DD20760
:1011B00004D501219A6D1A6D1142FBD1D023FF2273
:1011C0001B061A658022024B52051A607047C04602
:1011D00004ED00E00000000000000000000000003E
:1011E000EFF309811AA00CC8106880001B1818685A
:1011F00020390160F0C144464D4656465F46F0C175
:10120000146E556E566F176F3039F0C1106808B5FF
:1012100072B601F06DFE62B60CBC11680868103041
:10122000F0C8A046A946B246BB4680F309880D2205
:1012300012073038F0C81466556656671767F0C84D
:101240001847C046C046C046C046C046C046C04615
:10125000000000D07407002010B503F02BF9040043
:1012600001F016FD002803D08022034B52051A60BE
:10127000200003F0B1F910BD04ED00E010B5FFF758
:101280009FFEC04610B58024031F64041C60043B0D
:1012900019600349043B1960143B40381A6010BDC3
:1012A0007D1200108022044B52051A60BFF34F8F4D
:1012B000BFF36F8F7047C04604ED00E0D0231B06DC
:1012C0001B6808499B005A58002A08D00020585033
:1012D00005495B58BFF35F8F106083F3108862B6D7
:1012E0007047C046100A0020300A0220EFF3108039
:1012F00072B6704780F310887047C046D023002232
:101300001B065A657047C046002310B5084A094CB1
:1013100005202360136003F093FFFA21890005F094
:101320006DF8054B013818600723236010BDC046D7
:1013300018E000E010E000E014E000E070B5224B9F
:101340001A78D0231B061B689A4230D0FF231F4A0D
:101350001B0411680E200B4313601D4904F010FE9E
:101360000B201C4904F00CFED023FF221B061A653B
:101370001A6DD20704D501219A6D1A6D1142FBD165
:10138000D0252D062C68FF210F34200004F01CF915
:101390002000114904F00CF80121200003F0EAFFBD
:1013A000FFF7E6FE286801F0A3FDFFF709FEFFF74F
:1013B000ABFFFF23054A1B0611680F200B43136088
:1013C000064904F0DDFDC1E75002002020ED00E0F9
:1013D000E11100106D110010A91100105912001038
:1013E00010B572B6FFF7AAFF10B50E2003F05CFF30
:1013F0000F2003F059FF0022034B04481A7004F039
:101400002DFEFFF79BFFC04650020020E1130010A5
:1014100010B50A4B1B78FF2B0CD0EFF3058000288A
:1014200005D0D0231B061B684000C01810BD02F079
:1014300067F9FBE7D0231B061868F7E75002002086
:1014400000B51C4A0B00127883B0FF2A29D01A4934
:1014500002688C46022162449210FF319140090AD1
:1014600040BF0068BFF35F8F0022026083F31088E3
:10147000EFF30583DBB2002B05D1104B186800F0A9
:101480004DF903B000BD0D4B0192186801AA00F0A0
:101490008DF9019B002BF4D08022094B52051A6074
:1014A000EFE740BF0268BFF35F8F0021116083F355
:1014B0001088E6E75002002000FFFF2FA40A022058
:1014C00004ED00E0F0B51D00314B07001B780E0065
:1014D000140083B0FF2B4ED004F03CFC22002B0004
:1014E000121A8B4101212B48494280185941002989
:1014F00021DC1CD03B68BFF35F8F00221A6086F3AB
:101500001088254B5A6A95420AD98022234B5205EE
:101510001A60BFF34F8FBFF36F8F002003B0F0BD91
:101520009B6A0120A342F9D29542F7D1EDE7FA2355
:101530009B009842DED3FA220023920004F084FF3D
:10154000031ED7D0D0221206116815483A688900C8
:101550000A5014480E5014498C46022162449210DD
:10156000FF319140114A090A1068009301220023BB
:1015700000F078F8C5E70368BFF35F8F00221A60B8
:1015800081F310882000290004F062FBC6E7C04602
:101590005002002018FCFFFF0040054004ED00E071
:1015A000100A0020300A022000FFFF2FA40A0220A8
:1015B00010B500F04BF8014B186010BDA40A0220D2
:1015C000F8B5DE4657464E464546E0B505000F00E5
:1015D000060001F0E3FA29682C6939430C362960CA
:1015E000A6422AD0002398468023DB049B46802312
:1015F0005B049A4680239B0499460EE00B420AD076
:1016000057463A4202D042461A4390464B46194347
:1016100002F002FF2968A6420DD020005F46026852
:10162000646813021B0A3A42E8D01F000F40BB4215
:10163000E6D0A642F1D143469943296002F0AEFEBE
:10164000F0BCBB46B246A946A046F8BD10B51C206A
:10165000FFF7BCFC041E03D0002308C000F0B0F864
:10166000200010BDF0B5C646060000B50D0090463E
:101670001F0001F093FA3468002F0AD125420CD0E4
:101680004346002B0CD02300AB43336002F086FEB0
:1016900008E02B0023409D42F2D0069B002B05D191
:1016A00002F07CFE200080BCB846F0BD4346002B13
:1016B00016D180210023C904002F00D11900069AF9
:1016C0002943301D01F03EFE02F068FE00281CD0C8
:1016D00002F0B4FF0400830107D52402240AE1E7E5
:1016E000A0218023C9045B04E6E702F0E7F934682F
:1016F000002F0DD12C4205D04346002B02D02300F1
:10170000AB43336002F018FFE7E702F0C3F9DFE70D
:1017100023002B409D42F5D1EEE7C046F8B5DE46EA
:1017200057464E464546E0B505000F00060001F05D
:1017300035FA29682C6939430C362960A6422AD02B
:10174000002398468023DB049B4680235B049A4653
:1017500080239B0499460EE019420AD057463A422C
:1017600002D042461A4390464B46194302F054FEBB
:101770002968A6420DD020005F4602686468130203
:101780001B0A3A42E8D00F001F409F42E6D0A64213
:10179000F1D143469943296002F000FE2868F0BC6D
:1017A000BB46B246A946A046F8BDC04610B51300D8
:1017B0000A000100014803F041FC10BDC1150010F2
:1017C0000300083301224360C360036100235242D7
:1017D000826003607047C046002303617047C046C3
:1017E00043689A684B608A609A68516099600368A0
:1017F0000861013303607047030030B50C6808339B
:10180000621C0DD01A005B681D68A542FAD94B60B6
:10181000996003688A60013351600861036030BDDC
:1018200002695368F3E7C0460369416882688A60C9
:1018300051605968814205D0002202611A68501E29
:10184000186070475A60F7E7F0B5DE464E465746D7
:101850004546E0B585B0060002F030F94523F45C5A
:1018600064B2002C21DD213B994621339B46B144D3
:1018700009E0AB6BEA6B0396934245D3013CE3B2BC
:1018800064B2002B11D0B56C002DF2D1736A002B1D
:101890000BD0484601F0EAFD0028EFD001F026FF0A
:1018A000013CE3B264B2002BEDD14523FF22F25498
:1018B00002F042FE02F002F94423F45C64B2002C10
:1018C00016DD3500103504E0013CE2B264B2002AB6
:1018D0000ED03369002B0BD0280001F0C7FD002883
:1018E000F2D0013C01F002FFE2B264B2002AF0D172
:1018F0004423FF22F25402F01FFE05B0F0BCBB46A9
:10190000B246A946A046F0BD5B462A6CEF5CAB6BC5
:101910007FB29846002A13D12B680193002B30D058
:1019200000239A4643460133AB637B1C17D16B6A95
:10193000002B1DD15346002BA0D001F0D7FEAFE7FE
:10194000686803A905F0ECFB2A6C6B689446AA68EA
:1019500063446B609342E3D32B686B60E0E701F074
:1019600091F9B842E6D95B4601377FB2EF54E1E71F
:101970002800243001F07AFD0028DBD001F0B6FE0B
:101980008EE7A86801F0C6FF019B8246AB60C9E7FD
:10199000F0B5C64600B5846C82B0A36BE26B00253F
:1019A0000190934204D3280002B080BCB846F0BD39
:1019B0004523226CE65CA76B76B2002A1CD06068D7
:1019C00001A905F0ADFB226C63689446A2686344EC
:1019D0006360934214D3236863600137A763731C69
:1019E00013D1636A002BDED02000243001F03EFDCD
:1019F0000028D8D00125D6E723689846002B0DD0C3
:101A000001370025A763731CEBD001F03BF9864238
:101A1000C9D24523013676B2E654C4E7A06801F086
:101A200079FF43460500A360D7E7C046F8B5050037
:101A30000E001700002846D00B0C020C002B34D1EE
:101A4000331C002A35D130006843030055333AD89F
:101A50005430FFF7BBFA041E35D00300002E00D02F
:101A600054332360E563266402F028F8216CE36BAD
:101A700022684B43D0185B1AD3186260E3600025DC
:101A8000FF234422A0602000A563A3540132A35485
:101A90001030FFF795FE20002430FFF791FE02F092
:101AA0004BFD5023E754A5640EE0002A0BD11A1C0D
:101AB000031CB0B2A9B2414398B293B24343090C9C
:101AC0005B181B0CBFD000242000F8BD70B50400CB
:101AD00001F0F4FF23680025002B00D1A56802F077
:101AE0002BFD280070BDC046F0B5CE464746040029
:101AF0001E00002380B585B099460192884601F00A
:101B0000DDFFA36BE26B00274425934237D3022EFF
:101B100072D0019B002B00D18AE0002F68D002F028
:101B20000BFD01F03BF801F0C9FF625D52B2531C9E
:101B300001D14B4663554523E25C52B2013201D1DB
:101B40004A46E25402F0F8FC01A902A801F004FDA3
:101B5000002800D074E001F0B1FFA36BE26B934268
:101B600034D002F0E9FC2000FFF76EFE02F016FC14
:101B7000012701F0A3FFA36BE26B9342C7D2226C53
:101B8000A76BA56B002A3CD04146002E00D084E014
:101B9000606805F0C5FA226C63689446A2686344E5
:101BA0006360934201D323686360A36C0135A5632E
:101BB000002B34D1636A002B36D02000243001F092
:101BC00055FC002830D001F065FF2DE002F0B4FC98
:101BD00020000199103001F011FB2000FFF734FEC6
:101BE00002F0DCFB0028C3D101F054FF0127C0E75D
:101BF00002A801F0A5FC92E7226CA76BA56B002A56
:101C000025D1236800209846002B40D0A36C0135D5
:101C1000A563002B35D0022E01D1002F04D1200066
:101C2000FFF7B6FE0028CED102F086FC012002E0CC
:101C300002F082FC002005B0C0BCB946B046F0BD41
:101C40002000FFF701FE02F0A9FB0020F3E7414668
:101C5000E06805F065FAE168236C5A42CB1A216806
:101C6000E3608B4205D2A3689C466244E260022E88
:101C70009BD1002D00D10135A36CA563002BCCD1E5
:101C800098E7636A002B98D100289CD1CCE7A06824
:101C900001F040FE4346A360B8E7E06805F040FA73
:101CA000E168236C5A42CB1A2168E3608B42DED292
:101CB000D9E7C04670B506005420FFF787F9041E27
:101CC0002CD0002501230060C363056401F0F6FEFB
:101CD000216CE36B22684B43D0185B1AD318626007
:101CE000E3604422FF23A0602000A563A3540132D7
:101CF000A3541030FFF764FD20002430FFF760FD8F
:101D000002F01AFC50230022E65400210023200098
:101D1000A564A5602560E560FFF7E6FE200070BDC4
:101D200070B50400866801F0EBFC0025864201D006
:101D3000280070BDE3680135013BE360002BF7D15B
:101D4000002200212000FFF7CFFEF1E7F8B54E4654
:101D5000DE46574645460400E0B591461D000F009B
:101D600002F0A8FBA36BE26B060093423AD3022D6C
:101D70000AD00024300002F02FFC2000F0BCBB464B
:101D8000B246A946A046F8BD4523E35C226C5BB28F
:101D90009846A36B9B46A36B9A46002A2DD0390028
:101DA000E06805F0BDF9E168236C5A42CB1A21685E
:101DB000E3608B4203D2A3689C466244E2605346D0
:101DC000022D54D00133A363434601331ED000F0EB
:101DD00059FF80452DD24346452201335BB2A354BF
:101DE0000124C7E74523E35C226C5BB29846A36BF2
:101DF0009B46A36B9A46002A1DD12768002F3AD034
:101E000053460133A36343460133E0D1A36C002B57
:101E100022D0022D02D15B46002B0AD12000FFF711
:101E2000B7FD002805D04B46002B02D001234A46BF
:101E3000136001249EE7002DB1D13900606805F0E0
:101E40006FF9226C63689446A268634463609342AE
:101E5000D6D323686360D3E7636A002BE9D0200000
:101E6000243001F003FB0028DDD1012482E7002BA0
:101E7000C8D10133A7E7A06801F04CFD5346A76025
:101E80000133BFE7F0B5C646040000B50E0002F00E
:101E900011FBA36BE26B050000279A4214D945227F
:101EA000A75C01337FB29046A3637B1C13D1A36C64
:101EB000002B1AD02000FFF76BFD002813D0002E56
:101EC00011D0012301273360280002F085FB380080
:101ED00080BCB846F0BD00F0D5FE874203D2434631
:101EE00001377FB2E7540127EEE7636A002BFAD08F
:101EF0002000243001F0BAFA0028E0D10127E3E7FE
:101F0000F0B54746CE46040080B585B088460192BC
:101F100001F0D4FDA76B002F5ED1019B002B3BD0BD
:101F200002A801F00DFB002344269946452502F046
:101F300003FB00F033FE01F0C1FDA35D5BB2013392
:101F400001D14B46A355635D5BB2013301D14B46D2
:101F5000635502F0F1FA01A902A801F0FDFA002888
:101F600022D101F0ABFDA36B002B2AD102F0E4FAE1
:101F700020000199243001F041F92000FFF764FCB2
:101F800002F00CFA002824D001F098FDA76B002F76
:101F900022D1019B002BCAD102F0CEFA002005B05D
:101FA000C0BCB946B046F0BD2000FFF74DFC02F0C2
:101FB000F5F901F083FDA36B002BEDD002F0BCFA24
:101FC000E2E702F0B9FA2000FFF73EFC02F0E6F982
:101FD000DAE701F05FFDD7E7226C002A08D0E3685A
:101FE0009918A368E16099420BD2404605F098F831
:101FF0002369013FA763002B06D102F09DFA01205F
:10200000CDE72168E160F0E72000103001F02EFA02
:102010000028F2D001F03EFDEFE7C046F0B5C6461D
:102020000023040000B584B09846019101F046FDFC
:10203000A36B002600274425002B3CD1019B002BDD
:1020400000D178E0002F50D002F076FA00F0A6FD23
:1020500001F034FD635D5BB2013301D1434663554A
:102060004522A35C5BB2013301D14346A35402F085
:1020700063FA01A902A801F06FFA002827D101F044
:102080001DFDA36B002B34D102F056FA2368002B00
:1020900055D020000199243001F0B0F82000FFF75E
:1020A000D3FB02F07BF9002835D0012701F006FDB3
:1020B000A36B002BC2D0013BA3632368002B50D03D
:1020C0002369002B44D102F037FA01261EE02000DC
:1020D000FFF7BAFB02F062F901F0F0FCA36B002BF2
:1020E00010D002F029FA0127E0E702A801F028FA4F
:1020F000AAE702F021FA2000FFF7A6FB012702F071
:102100004DF9D3E702F018FA002E08D1300004B0E0
:1021100080BCB846F0BD01F0BDFC0127C6E701F068
:10212000CDFC616A002903D02021236B1B68C91AEA
:10213000A06801F049FC02F0FFF90026E6E701F093
:10214000BDFCA06801F066FB060002F0F5F9A0E70F
:102150002000103001F08AF90028B4D001F09AFC78
:10216000B1E702F08FFAA060AAE7C04670B58668B2
:1021700004000D0001F0C4FA864209D029002000B5
:10218000FFF74CFF002802D0E3680133E36070BD25
:10219000E36801200133E360F9E7C046194B70B5ED
:1021A0005A68904217D0DA6890421CD05A6990421F
:1021B0001BD0DA6990421AD05A6A904219D0DA6A72
:1021C000904218D05A6B904217D0DA6B904216D0DA
:1021D000FEF786FF70BD002200240025D2009B1868
:1021E0001C605D60F4E70122F6E70222F4E70322B7
:1021F000F2E70422F0E70522EEE70622ECE70722E9
:10220000EAE7C046C006002070B500290ED00026BF
:102210000023374DDA00AC186468844259D0002E90
:1022200005D00133082BF5D13160706070BDAC581A
:10223000002C4BD05C1C072BF8D0E200AE1876685F
:10224000B04246D0AE58002E47D09C1C062BEDD095
:10225000E200AE187668B0423BD0AE58002E3CD0BB
:10226000DC1C052BE2D0E200AE187668864230D046
:10227000AE58002E31D01C1D042BD7D0E200AE1872
:102280007668B04225D0AE58002E26D05C1D032BB8
:10229000CCD0E200AE187668B0421AD0AE58002E0C
:1022A0001BD09A1D022BC1D0D4002E197668B042E3
:1022B0000ED02C59002C13D0012BB7D0EB6B9842C9
:1022C00012D0AB6B002BB1D107233822AE18A8E790
:1022D000D200AE1831607060A8E72300AE18A0E706
:1022E0001300D200AE189CE73822AE18F2E7C046C1
:1022F000C006002070B5040016000D0001F0DEFBE2
:102300004422A35C5BB2013301D10023A3544522D4
:10231000A35C5BB2013301D10023A35402F00CF99A
:10232000A36B002B03D02000FFF78EFA70BD2000B6
:1023300032002900243001F053F8F4E710B5FEF71D
:10234000B1FF054C2368022B00D8FEE7FEF7AAFF79
:102350002368022BFAD8F8E790070020836B70B54A
:10236000002B02DB836B012B2FDD0126294C036B35
:102370005A1E2368196B2368DB6B3340C91A236824
:102380009B6B002B03DB23689B6B012B1EDD012560
:102390006D4201266368196B6368DB6B3340C91AB1
:1023A00063689B6B002B03DB63689B6B012B18DD61
:1023B00000206B1C09D0D0231B061B68984223D039
:1023C000850063599B6B023317D170BD124B1D689A
:1023D000002DDCD18A42DADB43683342D7D00A00D1
:1023E000D7E70D4B5B68002BE2D19142E0DC4368FC
:1023F0005B081E42DCD00120DDE7FEF77FFF0222F2
:10240000635952429A63E0E70122034B8000C250B5
:10241000DBE7C04674070020240B0220F0B5D64647
:102420004F464646484BC0B51B6804009846474B8C
:102430000F001B689946464B1B689A46EFF31081C4
:1024400072B6D02636063368424D9B00EA5881F3B7
:10245000108879230021D154EFF3108272B63368CB
:102460009B00E85882F310880830FFF7DDF9631C01
:1024700030D04444EFF3108172B6D02212061368B4
:102480009B00EB5881F310889C60A04515D8EFF3B2
:10249000108072B613689B00E95880F31088484694
:1024A0000831FFF7A9F92C4B1A68A24200D91C6029
:1024B000E0BCBA46B146A846F0BDEFF3108072B654
:1024C00013689B00E95880F3108850460831FFF7E5
:1024D00093F9EDE7002FCCD0204B5A68EFF3108032
:1024E00072B631688900695880F31088CA60EFF3CA
:1024F000108072B631688900695880F3108890683E
:102500000861EFF3108072B631688900695880F372
:102510001088906808314160EFF3108072B631681E
:102520008900695880F3108808319160EFF31081B9
:1025300072B632689200AA5881F3108893611A68C3
:1025400001321A60B4E7C046180B02208007002051
:102550008807002074070020BC0A0220F00A02202D
:10256000D020000603681D499B005A5870B5002A08
:102570002FD0013A5A50006883005A58002A28D1B7
:10258000174A9C58174A1378013BDBB21370002B93
:1025900008D10121144D2B5C8B432B54BFF35F8F6B
:1025A000124B1960D0231B0619685378013BDBB22C
:1025B0005370002B09D102200B4A535C83435354C0
:1025C000BFF35F8F01220A4B1A60FEF777FE002CE3
:1025D00000D170BDFEF766FEFBE7C046380A022058
:1025E000240B02202C0A0220280A0220380100D0E5
:1025F0003C0100D0D023F0B54F46D64646461B06D8
:102600001B684B4A9B009B58C0B59946494B4A4FA3
:1026100098464A4B9A4638E0464D484C6B78013B09
:10262000DBB26B70002B08D10221A35C8B43A35457
:10263000BFF35F8F0122424B1A60FEF73FFE72B676
:10264000D0231B061A683E4B1968002947D0BFF3F8
:102650005F8F012302216B70A35C0B43A354D02135
:10266000384B090618680A68002831D0BFF35F8F1D
:10267000012301212B70A35C0B43A354D02212062B
:1026800013689B00FE50002E46D04B469B6B0233D6
:102690002CD1D02109060A689300FE58002EBBD029
:1026A00000224546FA502B780A68013BDBB22B70BA
:1026B000002B02D054460A68B0E754460120A35CC0
:1026C0008343A354BFF35F8F1E4B18600A68A5E7CE
:1026D000A05CC0070FD419680029C7D1FBE7A15C33
:1026E000890715D419680029B1D1FBE7E0BCBA46C7
:1026F000B146A846F0BD2A78531C2B700B689B008E
:10270000FE50002EC1D10B682A70002ABDD105E011
:102710006B7801336B70A2E713682E700121E25CC5
:102720008A43E254BFF35F8F064B1960ADE7C046A2
:10273000740700202C0A0220380A0220280A0220EE
:102740003C0100D0380100D0F8B5EFF3108772B625
:10275000D0231B061A682D4B2D4C196800293ED03A
:10276000BFF35F8F012302212A4D6B70A35C0B43E3
:10277000A354294E3368002B21D0D021274B0906C2
:1027800018680A68002823D0BFF35F8F0123012156
:102790002B70A35C0B43A3543368002201333360D6
:1027A000D0231B061B682A700121E25C8A43E25495
:1027B000BFF35F8F194B196087F31088F8BDFFF7DF
:1027C00019FFD021154B090618680A680028DBD1CB
:1027D000A05CC0070FD419680029D5D1FBE7A15C24
:1027E000890703D419680029BAD1FBE7094D6B7832
:1027F00001336B70BDE72A78531C2B7033680133AB
:1028000033600B682A70002AD6D1CDE73C0100D096
:10281000280A02202C0A0220480A0220380100D08F
:1028200070B5D0242406FEF761FD2168154D8A009D
:10283000AB58002B02D00133AB5070BD124B1A685D
:10284000002A0ED0114ABFF35F8F0124104B1C7079
:10285000535C23435354D0231B0619688A00AB589A
:10286000E9E70A4A565CF60703D41C68002CEAD153
:10287000FBE7074A13780133137021688A00AB58CD
:10288000D9E7C046380A0220380100D0280A0220C1
:102890002C0A02204F4BF0B54646D6464F46984686
:1028A0004D4BC0B59A464D4C4D4D4E4E2368002BB6
:1028B00035D072B62B68002B0FD0D0231B061968B9
:1028C0008A00B358002B3FD00133B350D0231B06EE
:1028D0001B689B00F358012B2FD02368002B23D0BB
:1028E000414BDB68DF68BB6B013351D138000830E6
:1028F000FEF79AFF3D4A1368013B13602368013BD2
:1029000023602B68002B01D0FFF72AFE786BFEF7BF
:10291000E7FB3800FEF7E4FB2368002BC9D1E0BCDD
:10292000BA46B146A846F0BD2B68002BBED0FFF7D3
:1029300017FE2368002BBCD1F1E743461B68002B30
:10294000CBD1FFF757FEC8E7294A1368002B2CD0DC
:10295000284BBFF35F8F01225046022742705A5C1A
:102960003A435A54D022120694461168224A1768F4
:10297000002F13D0BFF35F8F0122027001205A5C39
:1029800002435A54D0231B0619688A00B3589BE7A8
:102990002B68002BC3D0FFF7E3FDC0E75F5CFF07A8
:1029A00010D41768002FE5D1FBE7124B585C800765
:1029B00003D410680028CCD1FBE7074842780132E5
:1029C0004270CFE7037801330370634619688A00C9
:1029D000B35879E7480A02202C0A0220440A022050
:1029E000E40A0220380A0220040B0220400A0220D6
:1029F0003C0100D0280A0220380100D010B5FEF7B3
:102A000051FC044CFFF746FF2368022BFAD9FEF76E
:102A100049FCF7E790070020F8B5CE46474604008A
:102A20000D0080B572B6544E3368002B10D0D02301
:102A30001B061868514A81005358002B34D00133CB
:102A40005350D0231B061B689B00D358012B24D066
:102A5000002C16D0336862686560002B08D0A36B29
:102A6000002B02DBA36B012B4BDD9543AB0744D15D
:102A70003368002B01D0FFF773FDC0BCB946B046E8
:102A8000F8BDEFF3108272B6D0231B061B683C49D9
:102A90009B005C5882F31088DCE73A4B1B68002BE4
:102AA000D6D1FFF7A7FDD3E737490B68002B4AD0F3
:102AB000364BBFF35F8F3649894601214F46797007
:102AC0000227BC466746195C39431954D0210906D0
:102AD0008C4608682F490F68002F2DD0BFF35F8FF9
:102AE00001214F4639700127195C39431954D0230D
:102AF0001B06186881005358A1E72000FFF72EFC41
:102B0000B6E7A06B0123C5402B42B1D1D0221206FB
:102B1000126890420CD01A4C85002B599B6B0233E3
:102B2000A6D0FEF7EBFB02222B5952429A639FE795
:102B3000194A800083509BE71F5CFF070BD40F6886
:102B4000002FCBD1FBE7114B1F5CBF070DD40F68E3
:102B5000002FAED1FBE74B4649461B7801330B7083
:102B6000634618688100535869E709498946484611
:102B7000497801314170A9E7E40A0220380A0220AD
:102B800074070020480A02203C0100D0280A0220D5
:102B90002C0A0220380100D0240B0220F8B5304B5B
:102BA0001B68002B00D1F8BDEFF3108772B6D0235D
:102BB0001B061A682B4B2C4C1968002931D0BFF327
:102BC0005F8F01230221294D6B70A35C0B43A3543B
:102BD000274E3368002B21D0D021264B09061868D8
:102BE0000A68002824D0BFF35F8F012301212B70D6
:102BF000A35C0B43A354336801333360D0231B061B
:102C00001A6800232B700121A35C8B43A354BFF3EC
:102C10005F8F184B196087F31088C4E7FFF7EAFC51
:102C2000DAE7A15C89070AD419680029C7D1FBE754
:102C3000A05CC00708D419680029D4D1FBE70B4D6C
:102C40006B7801336B70C3E72B785A1C2A7032689B
:102C5000013232600A682B70002BDCD1D3E7C0460A
:102C6000E40A02203C0100D0280A02202C0A02209B
:102C7000480A0220380100D0014B18687047C0464E
:102C8000180B0220014B18687047C046400A02200A
:102C9000F8B5DE4657464E4645468A4BE0B51B68BA
:102CA000002B4FD1884B1D686A1C93461A60002A7E
:102CB00054D0864B99464B461B685B4566D9844C7D
:102CC000844D2B681A6B93009B189B00E358012BD3
:102CD00000D8AEE06B681A6B93009B189B00E3581A
:102CE000012B00D8BFE0D0231B061A680124160070
:102CF000002E00D1E1E0002A00D1BAE02B689B6BE6
:102D0000023306D00020FEF7F9FA02222B68524265
:102D10009A63002C00D1B3E00024012E00D1CEE054
:102D2000D0231B061B68012B00D1C1E06B689B6B95
:102D300002330CD00120FEF7E1FA02226B68524206
:102D40009A6304E00024644A13680133136020008E
:102D5000F0BCBB46B246A946A046F8BD5F4B604AF0
:102D600019681068186011605E490A6801320A60CB
:102D70001A681268002A6FD1544B994601234A46BB
:102D80005B4213604B461B685B4598D8534E504CD2
:102D900033681B68002B00D182E000239A46524B17
:102DA000984632E0524682611A68013A1A60C36A54
:102DB000002B0ED0026A416A5D689160416A4A60E8
:102DC00002001C32954232D05246C2621A68013A61
:102DD0001A604346026B1B689A4201D943461A6047
:102DE00093009B189B00E1184A689568C2600561D2
:102DF00095686F609760E25881610132E250FFF799
:102E0000ADFA33681B68002B4AD03368DB68D8689A
:102E100083689B4549D307008369C1680269083705
:102E20008A6051605968B942BCD15A60BAE75960AA
:102E3000CAE76B681A6B93009B189B00E358012B41
:102E400024D9D0231B061E68284B32001B6801249E
:102E5000002B00D04CE75FE71B681C4ADB689146FB
:102E60001B68136027E7D0231B061A68002416008E
:102E70003EE701221D4B1A600023002C1BD11C00D1
:102E80001A4B5B68002B00D161E746E7D0231B0695
:102E90001A68164B16001C68002CF2D0002427E795
:102EA00001234A465B4213600AE74A46136007E77C
:102EB0000E4A53604BE71C0032E70123DDE7012493
:102EC00045E7C046480A0220180B0220BC0A02202F
:102ED0009007002074070020CC0A02208007002001
:102EE00088070020C00A0220500A0220240B02207A
:102EF000F0B5D02357464E46DE4645461B06E0B5A4
:102F00001A68B54B81461968B44F83B0002900D1C7
:102F1000D6E0BFF35F8FB24B9846012341464B701A
:102F20000221BB5C0B43BB54D0231B061A68AD4B7C
:102F30001968002900D1BBE0BFF35F8F0123414630
:102F40000B700121BB5C0B43BB54A74B1B68002BD0
:102F500032D04B4601229800A44BC250D0231B060E
:102F60001A68434641461B78013BDBB20B70002BCD
:102F700007D10121BB5C8B43BB54BFF35F8F994BDF
:102F80001960D0231B061A68434641465B78013B13
:102F9000DBB24B70002B08D10221BB5C8B43BB54CE
:102FA000BFF35F8F01228C4B1A6003B0F0BCBB46AD
:102FB000B246A946A046F0BD4A4695008B4A8C4CC5
:102FC00053518C4B1E689A46625963599269196B2A
:102FD0008B005B1888499B008C4663449A4277D0EB
:102FE0004A46012393401800834BB1009C469B4600
:102FF0000300484600903800891989008B44083145
:103000005F4661440122B44683461E000FE0002A59
:1030100004D0534650461B68013B03606346002BB7
:1030200044D001235B429946143FCC4414393B6899
:10303000002BECD04B68994233D0009A019791460F
:1030400005E06059824222D05B688B4226D0DA6864
:10305000906B471CF5D157683742F5D063595F46EE
:1030600098634B46615993636251002909D0624EBF
:103070000A6BB44693009B189B008E6963449E4282
:1030800044D0D0231B061A689300E35869E75068C0
:103090003042D9D04B465F469363F2E74B46019FDF
:1030A00000936346002B01D00022BAE75F46E8E7B1
:1030B000B95CC9071DD41968002900D03CE7FAE7BC
:1030C000B95C89071BD41968002900D021E7FAE709
:1030D00060590830FEF7A8FB635961591B6B083132
:1030E0009800C018444B80009C466044FEF778FB73
:1030F00076E7434642461B780133137025E7384B89
:10310000984642465B78013353700DE701239C4695
:103110004E68CB6B61460B40D21A49463300CB4018
:103120006146194202D063595B689E4303233340D2
:10313000590811D0636861681D6B0123C96B194080
:103140006D1A3340954207DA6168896B002903DB09
:103150006168896B01292EDDDB0792D50125236883
:1031600021681B6BC96B29405B1A9A4207DD2368F3
:103170009B6B002B03DB23689B6B012B23DD431C24
:1031800000D17EE7D0252D062A6882420DD0860028
:10319000A3599B6B023300D176E7FEF7AFF802220A
:1031A000A35952429A632A686EE701230F4A8000AE
:1031B00013502A6868E70D4949680029CCD1002BD3
:1031C00007D10120DEE7094B1B68002BD7D1002077
:1031D000D8E72A000120C1E73C0100D0280A0220DC
:1031E0002C0A0220380100D0480A0220240B0220B9
:1031F00074070020500A022090070020F8B5CE4640
:1032000047460C0080B5EFF3108272B6D026360622
:103210003368464D9B00595982F310881C31FEF7E4
:10322000EBFA434B1F68434B1B689846424B1B68A5
:103230009946EFF3108172B633689B005A5981F3B7
:10324000108879230021D154EFF3108272B63368CD
:103250009B00585982F310880830FEF7E5FA631C8A
:103260002DD0E419EFF3108272B633689B005B59DE
:1032700082F310889C60A7420FD9EFF3108272B6D8
:1032800033689B00595982F3108848460831FEF78D
:10329000B3FAC0BCB946B046F8BDEFF3108272B6BF
:1032A00033689B00595982F3108840460831FEF775
:1032B000A3FA224B1A689442EBD21C60E9E7204B38
:1032C0005A68EFF3108072B631688900495980F36B
:1032D0001088CA60EFF3108072B6316889004959CE
:1032E00080F3108890680861EFF3108072B631683F
:1032F0008900495980F31088906808314160EFF3E4
:10330000108072B631688900495980F310880831FD
:103310009160EFF3108172B632689200525981F3D6
:10332000108893611A6801321A60B2E774070020AE
:10333000180B02208007002088070020BC0A02200A
:10334000F00A022070B503000E001000EFF31081A8
:1033500072B6D0252D062A68204C9200125981F3AE
:103360001088802109063143D1615968EFF3108636
:1033700072B62A689200125986F310881162EFF330
:10338000108672B62A689200125986F310888E68E9
:103390005662EFF3108672B62A689200125986F3CD
:1033A00010888E681C327260EFF3108672B62A683D
:1033B0009200125986F310881C328A60EFF3108154
:1033C00072B62A689200125981F31088D3621A6883
:1033D000012101321A60FFF721F870BD7407002047
:1033E000F8B50300080011005A68EFF3108C72B6AC
:1033F000D0252D062E681C4CB60036598CF310884B
:103400003262EFF3108C72B62E68B60036598CF328
:10341000108897687762EFF3108C72B62E68B6004A
:1034200036598CF3108897681C367E60EFF3108C49
:1034300072B62E68B60036598CF310881C3696602A
:10344000EFF3108672B62A689200125986F310883C
:10345000D3621A6801321A60002901D0012040426B
:10346000FEF7DCFFF8BDC04674070020C36870B5E6
:10347000D868016A426AC36A8A60516001005C6868
:103480001C318C4245D00022C2621A68013A1A608F
:10349000264B1B68002B2DD10400C268016983698B
:1034A0009160016908344A605A68A24233D01A68B0
:1034B000013A1A601E4B026B19688A4227D89300A2
:1034C0001C499B189B00CD186A689668C26006610B
:1034D000966874609460CA5885610132CA50FEF7DC
:1034E0003DFFD0231B061B68134A9B009858431EC0
:1034F000984170BD114B5A689468026244629468A6
:10350000616091601A68C36201321A60E7E71A606D
:10351000D5E75A60B7E71A685960013A1A60044B58
:10352000026B19688A42CAD9F1E7C046480A0220EC
:10353000500A022090070020240B0220D00A02200B
:10354000034B1B680360034B1B6843607047C04616
:10355000C00A0220180B0220F8B5CE4647460400E8
:103560000D0080B572B6574E3368002B10D0D023B3
:103570001B061868544A81005358002B58D0013359
:103580005350D0231B061B689B00D358012B48D0F7
:103590004E480368984663689946EFF3108C72B6FC
:1035A000D02109060B684A4A9B009F588CF310886B
:1035B0007923FF5C002F14D0EFF3108072B60968F6
:1035C00089008A5880F3108800210124D15433687F
:1035D000002B01D0FEF7C4FF2000C0BCB946B046A6
:1035E000F8BD2B685A1C1AD03A4A276811688F42D6
:1035F00006D06168414503D8002301242B60E6E72B
:1036000041464F46C91B8B42F6D941465B1A4B4493
:103610002B6013682360036863600024D7E70024ED
:10362000D5E72D4B1B68002BB2D1FEF7E3FFAFE7C8
:103630002A490B68002B24D0294BBFF35F8F2949FF
:10364000894601214F4679700227BC466746195CBE
:1036500039431954D02109068C46086822490F685D
:10366000002F16D0BFF35F8F01214F46397001271D
:10367000195C39431954D0231B061868810053582C
:103680007DE7174B1F5CBF070AD40F68002FD4D10A
:10369000FBE71F5CFF070AD40F68002FE2D1FBE7AE
:1036A000104989464846497801314170D2E74B4676
:1036B00049461B7801330B706346186881005358E4
:1036C0005DE7C046E40A0220380A0220180B0220F7
:1036D00074070020C00A0220480A02203C0100D0E2
:1036E000280A02202C0A0220380100D0D023012110
:1036F0001B061B68014A9B0099507047240B02204F
:10370000EFF3108272B6D0231B061B6802499B00A0
:10371000585882F31088704774070020F8B5364D6A
:1037200001242B68002B01D12000F8BD72B62B6854
:10373000002B17D0D0231B061868304A810053583D
:10374000002B1AD001335350D0231B061B682C4C7E
:103750009B00D358012B06D12368002B03D1FEF721
:1037600049FF00E0264C246863425C412B686400FA
:10377000002BD9D0FEF7F4FED6E722490B68002BC8
:103780001ED0214BBFF35F8F012102261F4C6170B9
:10379000195C31431954D0261D4936060F6830682C
:1037A000002F15D0BFF35F8F012121700124195C18
:1037B00021431954D0231B06186881005358C1E7D0
:1037C000114B1C5CA4070AD40C68002CDAD1FBE76F
:1037D0001F5CFF0708D40E68002EE3D1FBE70B4CFB
:1037E000617801316170D6E7237801332370306846
:1037F00081005358A6E7C046E40A0220380A022096
:10380000480A02203C0100D0280A02202C0A02208B
:10381000380100D0F8B5041E42D0016BEFF31080E0
:1038200072B6D02212061368374D9B00EB5880F316
:1038300010881B6B994225D2E369002B0BDBEFF359
:10384000108172B613689B00EB5881F310881A6BD5
:1038500020239B1AE361226B2C4E93009B189B0044
:10386000A269F3189A421DD0EFF3108272B6D023EA
:103870001B061B689B00EB5882F310881B6B012012
:1038800023630CE0A06DEFF3108172B613689B0008
:10389000EB5881F310881B6B984280414042F8BD81
:1038A0000020FCE7270008373800FDF7BDFFEFF3E5
:1038B000108272B6D0231B061B689B00EB5882F364
:1038C00010881A6B124B226319688A4200D91A6059
:1038D00093009B189B00F1184A689068E260206191
:1038E000906847609760F258A1610132F250A36B73
:1038F000002B03DBA36B0120012BD0DD2000FEF7A2
:103900002DFD0120CBE7C046740700209007002062
:10391000500A022070B5041E08D0C36D026B816D81
:10392000013BC3658A4201D0002B02D0002528004C
:1039300070BD050008352800FDF776FF2023A26D35
:103940009B1AE3611C4B226319688A4200D91A60F2
:1039500093001A499B189B00C81842689668E26059
:103960002661966875609560CA58A0610132CA5098
:10397000A36B0125002BDADBA36B012BD7DCD02353
:103980001B06A26B1B689A4210D0A36B0C4E9B00C7
:103990009B599B6B0233CAD0A06BFDF7AFFC022290
:1039A000A36B52429B009B599A63C0E7A36B054AE5
:1039B0009B009D50BBE7C046500A022090070020A4
:1039C00074070020240B022070B5041E08D0836DFC
:1039D0008B4206D3226B9A4202D0E16D012905D0B9
:1039E00070BD226B0B009A42F7D1F9E7E1692363BE
:1039F000002902DB2021CB1AE36193009A18214DA4
:103A00009200A369AA189342EAD126000836300032
:103A1000FDF70AFF1C4B226B19688A4200D91A6015
:103A200093009B189B00E9184A689068E260206147
:103A3000906846609660EA58A1610132EA50A36B33
:103A4000002BCDDBA36B012BCADCD0231B06A26BA2
:103A50001B689A4210D0A36B0C4D9B005B599B6B6B
:103A60000233BDD0A06BFDF749FC0222A36B52428A
:103A70009B005B599A63B3E70121A36B044A9B0047
:103A80009950ADE790070020500A022074070020EB
:103A9000240B0220D0231B061B68064A9B009A5861
:103AA00010B5002A03D00121034A995010BDFDF73B
:103AB000F9FBFBE7380A0220240B022070B572B62E
:103AC0002D4B1B68002B10D0D0231B0618682B4AE7
:103AD00081005358002B10D001335350D0231B06C4
:103AE0001B689B00D358012B00D070BD244B1B6872
:103AF000002BFAD1FEF77EFDF7E722490B68002B79
:103B00001ED0214BBFF35F8F012102251F4C617036
:103B1000195C29431954D0251D492D060E682868C3
:103B2000002E15D0BFF35F8F012121700124195C95
:103B300021431954D0231B06186881005358CBE742
:103B4000114B1C5CA4070AD40C68002CDAD1FBE7EB
:103B50001E5CF60708D40D68002DE3D1FBE70B4C83
:103B6000617801316170D6E72378013323702868CA
:103B700081005358B0E7C046E40A0220380A022008
:103B8000480A02203C0100D0280A02202C0A022008
:103B9000380100D0F0B5C64600B50500FFF78EFF2E
:103BA0002D4A2E4F1368013313603B68002B27D03A
:103BB0002B4E2C4A1368013313602B652A4B2A6B5A
:103BC00019688A4200D91A6093009B189B00F0186C
:103BD00042689168EA60296129009468083161604F
:103BE0009160F258A8610132F2503B68002B2ED14F
:103BF0003B68002B01D0FEF7B3FC80BCB846F0BD9B
:103C00001368174E012BD4D1A0239B009846340093
:103C1000B04420001434FDF7D3FD4445F9D1134BD3
:103C200098461800FDF7CCFD114C2000FDF7C8FDAB
:103C30001048FDF7C5FD1048FDF7C2FD0F48FDF720
:103C4000BFFD42460E4B1A600E4B1C60B1E72800C8
:103C5000FEF784FBCCE7C046400A0220E40A0220BB
:103C6000900700204C0A0220500A02207C0A022001
:103C7000900A0220D00A0220040B0220F00A02203F
:103C80008007002088070020F8B5CE4647469600FA
:103C900080B5804630000D009946FDF797F9071E64
:103CA00000D1ACE07C20FDF791F9041E00D1A9E021
:103CB0007C22002103F02EFA3200A5213800676330
:103CC00003F028FA636B043E9C46072366449E4338
:103CD000002D5FD040232A78E2542B78002B56D059
:103CE00041236A78E2546B78002B50D04223AA78A3
:103CF000E254AB78002B4AD04323EA78E254EB78C5
:103D0000002B44D044232A79E2542B79002B3ED057
:103D100045236A79E2546B79002B38D04623AA797F
:103D2000E254AB79002B32D04723EA79E254EB79A5
:103D3000002B2CD048232A7AE2542B7A002B26D051
:103D400049236A7AE2546B7A002B20D04A23AA7A5C
:103D5000E254AB7A002B1AD04B23EA7AE254EB7A86
:103D6000002B14D04C232A7BE2542B7B002B0ED04B
:103D70004D236A7BE2546B7B002B08D04E23AA7B39
:103D8000E254AB7B002B02D04F23EA7BE2544F235B
:103D90000022E254089D1F2D3AD820002563A56516
:103DA0000830FDF719FD20001C30FDF715FD20231C
:103DB0005D1B4A46414630006461E561A462FDF73F
:103DC00061FA01235B42A363124B2060984511D036
:103DD000114B98450ED0099B002B00D01C6001238D
:103DE0005B4220006360FFF7D5FE0120C0BCB946EE
:103DF000B046F8BD0123E26B1343E363EBE7012018
:103E00004042F3E73800FDF76BF901204042EDE74F
:103E10001F25C2E7FD2900103D230010F8B5CE464E
:103E20004746960080B5804630000D009946FDF764
:103E3000CDF8071E00D1ABE07C20FDF7C7F8041ECB
:103E400000D1A8E07C22002103F064F93200A52112
:103E50003800676303F05EF9636B043E9C460723FA
:103E600066449E43002D5FD040232A78E2542B788D
:103E7000002B56D041236A78E2546B78002B50D047
:103E80004223AA78E254AB78002B4AD04323EA7845
:103E9000E254EB78002B44D044232A79E2542B7966
:103EA000002B3ED045236A79E2546B79002B38D041
:103EB0004623AA79E254AB79002B32D04723EA7922
:103EC000E254EB79002B2CD048232A7AE2542B7A47
:103ED000002B26D049236A7AE2546B7A002B20D03B
:103EE0004A23AA7AE254AB7A002B1AD04B23EA7AFF
:103EF000E254EB7A002B14D04C232A7BE2542B7B28
:103F0000002B0ED04D236A7BE2546B7B002B08D034
:103F10004E23AA7BE254AB7B002B02D04F23EA7BDB
:103F2000E2544F230022E254089D1F2D39D820006F
:103F30002563A5650830FDF74FFC20001C30FDF718
:103F40004BFC20235D1B4A46414630006461E5611D
:103F5000A462FDF797F901235B42A363124B206033
:103F6000984510D0114B98450DD00A9B002B00D0DE
:103F70001C60099B20006360FFF70CFE0120C0BCA1
:103F8000B946B046F8BD0123E26B1343E363ECE7A7
:103F900001204042F3E73800FDF7A2F8012040423B
:103FA000EDE71F25C3E7C046FD2900103D230010A3
:103FB000484BF0B5574645469A469846464B4E46BE
:103FC00099460123DE465B42E0B59B460026434FFF
:103FD00083B030239C468020B444634600010193A3
:103FE000FCF7F4FF051E5AD07C20FCF7EFFF041EFF
:103FF00058D07C22002103F08DF88022A5212800D2
:104000006563120103F086F8354B019A236444235B
:104010003449656BE254002345228C462000072179
:10402000A3540A32A35465442363A36508308D4327
:10403000FDF7D2FB20001C30FDF7CEFB2023002231
:10404000E361414628006461A462FDF71BF95B4609
:104050002060A363D0451DD0C8451BD05B463C60A3
:1040600020006360FFF796FD012108CF1E48B200D3
:104070009E63C8468350012E0AD1012918D01B4BDC
:104080001B6803B0F0BCBB46B246A946A046F0BDD3
:1040900001269EE70123E26B1343E363DEE7012180
:1040A0004942E2E72800FDF71BF801214942DCE71D
:1040B00000F0F4FE0128E2D172B601220C4B52420C
:1040C0001A6000220B4B1E600B4B1A60FDF78CF937
:1040D000D5E7C046FD2900103D230010AC0A0220A0
:1040E00049444C45FC07000074070020540200209E
:1040F000BC0A0220E40A0220180B022070B504005A
:10410000FFF7DCFC002C49D0260008363000FDF714
:104110008BFBE36A002B03D020001C30FDF784FBEF
:10412000394A3A4D136801331360A36B013316D03B
:104130002B68002B14D031003548FDF751FB354A70
:10414000136801331360A36B002B02DBA36B012BFD
:1041500030DD2B68002B1CD0FEF702FA19E02B682B
:104160002D4A1368013B13602C4B1A681268002A11
:1041700010D01B68DB681A68294B1A602B68002B6B
:1041800001D0FEF7EDF9606BFCF7AAFF2000FCF709
:10419000A7FF70BD224B013A1A60EFE7EFF31082E0
:1041A00072B6D0231B061B681E499B005C5882F325
:1041B0001088A9E7D0221206A36B1268934213D08D
:1041C000A36B9A4219D0A36B164E9B009B599B6B15
:1041D0000233BED0A06BFDF791F80222A36B5242CE
:1041E0009B009B599A63B4E70F4A9B009A58002A98
:1041F00006D001210D4A9950ABE7A36B9B00F8E76D
:10420000FDF750F8A5E7C0464C0A0220E40A022058
:10421000040B0220440A0220400A022080070020EA
:10422000BC0A022074070020380A0220240B022056
:10423000F8B5CE46474680B5FFF740FCD0210906C9
:104240000B68494A99461368013B1360086847495F
:104250004B78013BDBB24B70002B09D1022444495F
:104260000B5CA3430B54BFF35F8F0121414B1960DB
:1042700013680024002B66D13F4B1B68002B62D0D3
:104280003E4D2B68002B48D03D4B3E4C98460023BA
:104290009C462AE06146D962116801391160D868EC
:1042A00019699A6981604860180057680830874228
:1042B00054D01168013911604246196B126891425D
:1042C00001D9424611608A0052189200A7187968F5
:1042D0008E68D9601E618E68706088609F61A35887
:1042E0000133A3502B68002B0DD0EB68DB68186AF4
:1042F000596ADA6A81604860180057681C30874242
:10430000C8D15160C6E7204B1A681268002A27D02E
:104310001B68DB681A681D4B1A601D4B1D4D9846C3
:104320001C684B469F00002C0AD00126FEF7B0FC0B
:10433000002800D0EE51013C002CF7D143461C6010
:10434000EC59631E9C41144B1B68002B01D0FEF7F7
:1043500007F92000C0BCB946B046F8BD5160A8E7D7
:104360000A4B013A1A60D8E7480A02202C0A0220B8
:10437000280A02203C0100D0400A0220D00A022074
:10438000500A02209007002080070020BC0A02206B
:10439000CC0A0220240B0220E40A0220044B10B5B0
:1043A0001868002800D110BDFFF742FFFBE7C046A8
:1043B000E40A022070B5041E0AD0144D2B68002BAD
:1043C0001AD100212000FEF729F82B68002B0ED10E
:1043D000D0231B061B680E4A9B009A58002A03D064
:1043E00001210C4A995070BDFCF75CFFFBE7FFF719
:1043F0001FFF0028ECD0F6E7FEF7A6F90021200009
:10440000FEF70CF82B68002BE2D0F0E7E40A02205C
:10441000380A0220240B022080231B0642680B432B
:10442000816870B50360C4680369916081684A60FF
:104430005A68824234D00022026120001A68216941
:10444000013A1A60E268A3699160216908304A6004
:104450005A68824226D01A68013A1A60124B226BBF
:1044600019688A4200D91A60930010499B189B0072
:10447000CD186A689668E260266196687060906000
:10448000CA58A5610132CA50FFF718FB2000FDF79A
:1044900065FF074B1B68002B01D0FEF761F870BD6C
:1044A0005960C8E75960D6E7500A022090070020FB
:1044B000E40A02201B4B00201B6870B5002B00D1C2
:1044C00070BDD0252D06FCF711FF2C681649A200FF
:1044D0008B58002B02D001338B50F1E7134B1A6835
:1044E000002A0ED0124ABFF35F8F0125114B1D70B9
:1044F000135D2B431355D0231B061C68A2008B5859
:10450000E9E70B4A165DF60703D41D68002DEAD1D2
:10451000FBE7084A1378013313702C68A2008B580C
:10452000D9E7C046E40A0220380A0220380100D048
:10453000280A02202C0A0220204B70B51B68002B91
:1045400037D0D020000603681D499B005A58002A26
:104550002FD0013A5A50006883005A58002A28D1B7
:10456000184A9C58184A1378013BDBB21370002B91
:1045700008D10121154D2B5C8B432B54BFF35F8F6A
:10458000134B1960D0231B0619685378013BDBB22B
:104590005370002B09D102200C4A535C83435354BF
:1045A000BFF35F8F01220B4B1A60FCF787FE002CD4
:1045B00000D170BDFCF776FEFBE7C046E40A02209E
:1045C000380A0220240B02202C0A0220280A02208A
:1045D000380100D03C0100D0134B10B51B68002BF4
:1045E00020D0D0242406236810499B005A58002A62
:1045F00018D0013A5A50226893005B58002B11D111
:104600000B490B78013BDBB20B70002B08D1012169
:10461000084CA35C8B43A354BFF35F8F064B196018
:10462000FCF768FE10BDC046E40A0220380A0220EA
:104630002C0A0220280A0220380100D010B5EFF31E
:10464000108072B6D02109060B680D4A9B009B585A
:1046500080F31088D869EFF3108472B60B689B0062
:104660009B5884F310881C6BEFF3108372B60968B3
:1046700089008A5883F3108820231B1BD36110BD47
:1046800074070020EFF3108272B6D0231B061B685C
:1046900005499B00585882F31088002802D0C36D4A
:1046A0000133C3657047C04674070020F8B5CE4695
:1046B00047464F4E040033688846914680B5002B2C
:1046C00000D083E0FFF7FAF9EFF3108172B6D02241
:1046D00012061368474F9B00FB5881F31088250092
:1046E0001C35A9005B185B68002B2AD1EFF3108101
:1046F00072B613689B00FB5881F3108801221B19C6
:1047000078331A704B46002B1BD03368002B01D036
:10471000FDF726FF01214846FDF780FE3368002B98
:1047200003D0FFF785FD002811D1D0231B061B689D
:10473000314A9B009A58002A57D001212F4A99509C
:1047400005E03368002B39D13368002B3BD1FFF7EC
:10475000B5F9EFF3108272B6D02109060B689B0001
:10476000FB5882F31088AA009B185D68002D0DD0BD
:104770004346002B2DD0EFF3108072B60B689B00E0
:10478000FB5880F310889A1800235360EFF31082CF
:1047900072B6D0231B061B689B00F85882F3108862
:1047A00000230019783003703368002B01D0FDF727
:1047B000D7FE2800C0BCB946B046F8BDFDF7D0FE14
:1047C0003368002BC3D0FFF733FDC0E7FDF7BCFF14
:1047D00078E7EFF3108072B60B689B00FB5880F30C
:1047E0001088691E9A185160D0E7FCF75BFDAEE7B0
:1047F000E40A022074070020380A0220240B022059
:10480000F8B54E464546DE4657460C00E0B59046A4
:1048100005001E0072B66B4F3B68002B11D0D023F1
:104820001B061868684A81005358002B00D175E0B8
:1048300001335350D0231B061B689B00D358012B18
:1048400065D00A9B002B06D01A0023001C339B0066
:10485000EB185B6813600222291978310B780A7013
:10486000DBB2032E1CD017D8012E49D0022E04D162
:10487000A4002C19626F013262670124012B17D04A
:104880003B68002B01D0FDF76BFE2000F0BCBB465F
:10489000B246A946A046F8BD042EEED1022B6CD03C
:1048A00042461C34A4002C1962600124012BE7D17C
:1048B0002800AB69E9682A6908308A605160596844
:1048C00081425CD01A68013A1A60404B2A6B196821
:1048D0008A4200D91A6093003D499B189B00CC186E
:1048E00062689668EA602E61966870609060CA5847
:1048F000AC6101322800CA50FDF730FD0124BFE74A
:104900004646A4002C19626F16436667B5E7314B23
:104910001B68002B95D1FDF76DFE92E72E490B68C1
:10492000002B2ED02D4B9946BFF35F8F01212C4BCE
:1049300059709C464B46195C02239A4653461943CC
:104940004B461954D02109068A46086825490B6848
:10495000002B1FD0BFF35F8F0121634619704B46B8
:10496000195C01239C46634619434B461954D023D6
:104970001B061868810053585AE7002480E75A60E4
:10498000A0E7164B99461B5C9B070BD40B68002BCA
:10499000CAD1FBE74B461B5CDB0709D40B68002B35
:1049A000D8D1FBE70E4B59789C4601315970C9E7C5
:1049B000634661461B7801330B70534618688100CB
:1049C000535835E7E40A0220380A0220500A022030
:1049D00090070020480A02203C0100D0280A02204B
:1049E0002C0A0220380100D0F0B5C646160000227D
:1049F000464F05003B680C00904600B5002B5FD188
:104A000002212B197833A4001A782C191970636FBE
:104A100001336367012A27D03B68002B21D0D020C7
:104A2000000603683A499B005A58002A19D0013AF7
:104A30005A50026893005B58002B12D135490B780D
:104A4000013BDBB20B70002B08D101213248835CA3
:104A50008B438354BFF35F8F304B19604046FCF7A4
:104A600049FC80BCB846F0BD2D4B1B68002B2BD1F8
:104A70002C00AB69E9682A6908348A60516059687A
:104A8000A14240D01A68013A1A60264B2A6B196875
:104A90008A4200D91A60244B9C4693009B186246B8
:104AA0009B00D01842689168EA60296191684C6067
:104AB000946062466146D258A8610132CA5011E042
:104AC000FDF7AEFE80469BE7184B5A6891682A6254
:104AD0006962290090681C31416091601A68EB623C
:104AE00001321A602800FDF739FCD0231B061B6831
:104AF0000F4A9B009B58012B00D08DE7002E00D160
:104B00008AE7336088E75A60BCE7C046E40A0220BF
:104B1000380A02202C0A0220280A0220380100D07C
:104B2000480A0220500A022090070020D00A0220E2
:104B3000240B0220D44BF0B5DE4657464E46454680
:104B40009846D24BE0B59946D14B89B09A46D14BA5
:104B50009B4643461B681C68002C00D1C9E0DB68FB
:104B60001C68FEF71BF8FEF787F84B461B680190A0
:104B7000834242D84A461060844200D82CE1002289
:104B8000019BE11A5B461868FDF7B4FBFFF706FCD2
:104B9000002800D112E11022002104A802F0BAFA84
:104BA0005B460022186804A9FDF7AAF90028D0D0B6
:104BB000049B0193002B00DA8CE0069F7B69002B9D
:104BC00002D0381DFCF730FEFEF756F84B461B6846
:104BD0000190984200D2ABE04B46019A1A60049BC8
:104BE000092BDDD8AC4A9B00D3589F460122934342
:104BF0002732A3542000236A984743461B681A684B
:104C0000002A00D188E0DB68DC681E68271D3800B8
:104C1000FCF70AFE28230422E35C1A42E6D0A369CB
:104C20002461F518F6436560B3420AD82E00F643B6
:104C3000236A20009847A3692461ED186560B34298
:104C4000F4D9534639001868FCF7D6FDD2E728227C
:104C50000123B85C05990343BB54BA69019C8B18C6
:104C60007B603F61A34200D9ABE0611A8A421BD846
:104C7000410700D5E9E0012398432733F854380071
:104C80003B6A98478CE7282101227B5C13437B54C5
:104C9000059B0199BB615A187A603F618A4200D92D
:104CA00094E0002B00D17BE75346391D1868FCF7D0
:104CB000A3FD75E728220121BB5C8B43BB546FE742
:104CC0002823FB5C9A0700D49BE001229343273200
:104CD000BB5465E7079B0193069B01990293059BD3
:104CE000029803939847049B0193002B00DA57E73F
:104CF00063E7FDF753FFFDF7BFFF4B461B6802005C
:104D00000190984200D278E74B461A6053461B68E0
:104D10001A6853425A4133E75146424609681160C6
:104D2000524613604B46019A1A60FFF737FB32E791
:104D300043461B681A68002A39D002970BE001220B
:104D400093432732A354236A2000984743461B68A5
:104D50001A68002A2AD0DB68DC681E68271D380024
:104D6000FCF762FD28230422E35C1A42E7D0A36922
:104D70002461F518F6436560B3420AD82E00F64365
:104D8000236A20009847A3692461ED186560B34247
:104D9000F4D9534639001868FCF72EFD236A200029
:104DA000984743461B681A68002AD4D1029F51468F
:104DB000424609681160524613600DE7FEF76AFE2D
:104DC000E9E6A14202D9994200D851E74346391D8C
:104DD0001868FCF711FDE3E6FFF7E0FA43461B68AD
:104DE000DB68DD682F1D3800FCF71EFD2822AB5C58
:104DF00059070AD401218B43AB5428002B6A9847EA
:104E0000C9E63800FCF76CF9CAE62300019C06E00D
:104E1000E31A9A4213D82B6A280098473300AA69EC
:104E20002D619E186E60A642F2D9A34201D9B34209
:104E3000F1D9434639001868FCF7DEFCDDE753463C
:104E400039001868FCF7D8FCD7E7019D07E0EB1A9A
:104E50009A4213D83B6A380098472300BA69D4189D
:104E60007C603F61A542F2D29D4201D2A342F1D9BA
:104E70004346391D1868FCF7BFFC00E75346391D4F
:104E80001868FCF7B9FCFAE67C070020B40A022097
:104E90008C0700201C0B02201891001070B584B004
:104EA000FEF70CFE184C2368002B15D0FFF744FBCF
:104EB00023680020002B0DD0144B80220293012385
:104EC0005B42019320330093114900231148D20023
:104ED000FEF7A4FF04B070BD0F4E3000FCF770FC6D
:104EE0000E4D2800FCF76CFC0D4B00221E600D4B94
:104EF00010210A201D60FCF799FD20600028D5D004
:104F00000949FDF781F9D1E71C0B0220200B022093
:104F100048910010354B0010540A0220680A022004
:104F20007C0700208C07002040910010F8B5454612
:104F3000DE4657464E46E0B507002C208846160050
:104F40001D00FCF743F8041E1BD028230022C25486
:104F5000FEF7B4FD1D4B99461B68002B18D0FFF7D8
:104F6000EBFA4346A3610A9B2760E5612362201D9B
:104F7000FCF732FC002E04D028220421A35C0B4352
:104F8000A3542000F0BCBB46B246A946A046F8BDDB
:104F90000F4B9B461800FCF713FC0E4B18009A466B
:104FA000FCF70EFC5A460C4B10211A6052460B4B74
:104FB0000A201A600022FCF739FD4B4618600028D1
:104FC000CDD00749FDF720F9C9E7C0461C0B0220E8
:104FD000540A0220680A02207C0700208C07002067
:104FE0004091001010B50F4C84B02368002B04D002
:104FF000009101920290052902DD002004B010BD4D
:10500000FEF78CFB022806D00023002269462068A8
:10501000FCF76AFDF2E7002369462068069AFCF770
:1050200063FDEBE71C0B022010B50400FEF746FD04
:10503000E469FFF781FA200010BDC04610B51400E6
:105040001A00022384B05B420093054B0190029149
:105050001868694600230394FCF778FE04B010BD7D
:105060001C0B0220F8B5DE464E4657464546E0B5D5
:105070008B4605000A991800160001F0BFF90A9B3B
:105080006C001F02324B64199C46A40064446368A0
:1050900081469F4200D967602B1FDBB29846012BE7
:1050A00030D9C02380229B01E31812011A60294BDA
:1050B000AD0059599A4600291BD1226876017240E9
:1050C000E0268023164042465B01E3181E60012A59
:1050D00030D9802380229B01E31812011A605346C5
:1050E0004A4667605A51F0BCBB46B246A946A04644
:1050F000F8BD586901F082F9431C5800C018033804
:10510000FDD2DAE75B46012BCBD1C02303229B0102
:10511000E3181A60023AA3681A42FCD0E02322681E
:10512000760156401E4080230A4A5B019246E318EE
:105130001E60AD005A462168514003220A401A60A1
:1051400001225B469A40A3681A42FCD0C1E7C046E0
:10515000008000402C070020F0B546464F46D6465A
:10516000C0B51F00344B44009C462418A40064447E
:10517000636888461600FF2B02D880235B006360BB
:10518000031FDBB29A46012B30D9C02380229B013A
:10519000E31812011A60294B8500595999460029D4
:1051A0001BD1226876017240E026802316405246C9
:1051B0005B01E3181E60012A30D9802380229B0105
:1051C000E31812011A6080235B0063604B465F5155
:1051D000E0BCBA46B146A846F0BD586901F00EF9E8
:1051E000431C5800C0180338FDD2DAE74346012BB0
:1051F000CBD1C02303229B01E3181A60023AA368B3
:105200001A42FCD0E0232268760156401E408023DB
:105210000A4A5B019146E3181E60850042462168F8
:10522000514003220A401A60012342469340A2687B
:105230001342FCD0C1E7C046008000402C0700208C
:10524000014B8000C05870472C07002070B5EFF369
:10525000108C72B60D4D2B68002BFCD0BFF35F8F06
:105260000724CB08C618C05C01230C40A3401C00D7
:105270000440034207D103433370BFF35F8F2C60B8
:105280008CF3108870BD1000FBF782FE2C0100D05B
:10529000044A1078431CDBB2172B00D9102313707B
:1052A0007047C0465802002010B50100024A03486A
:1052B000FFF7CCFF10BDC04650910010240700201E
:1052C0000021044B044ABFF35F8F02C39342FAD11B
:1052D0007047C046000100D0800100D010B54024C6
:1052E000084A83009A181268C0005440C022224025
:1052F000054CA44663441A60044B9C4660444160DC
:1053000010BDC04604C0014004D00140004001402F
:105310000123D02283404021120693629361094AFF
:1053200083009A181268C0005140C0220A40064902
:105330008C4663441A60054B9C46052360444360D9
:105340007047C04604C0014004D001400040014005
:10535000054B064A1360064A136053609360D3609E
:1053600013615361936170478080808000E400E0A6
:1053700004E400E01F2318401E3B8340002905D0B1
:10538000C021044A490053501360704780220149EC
:105390008B50FAE700E100E001228240034B1B68DA
:1053A00013405A1E9341D8B27047C04600E100E056
:1053B00070B50D00EFF3108672B60F4A1368002B1C
:1053C000FCD0BFF35F8F0D4B10309B6884001B59DE
:1053D0000B4A934203D09D4201D000F0F5FE074BEB
:1053E0009B681D51BFF35F8FBFF35F8F0022024B9D
:1053F0001A6086F3108870BD240100D000ED00E033
:10540000CD010010F0B5DE4657464E464546E0B5A4
:105410000C0083B0EFF3108972B65F4A1368002B5B
:10542000FCD0BFF35F8F5D4B9A68030010339F0081
:10543000D5595B4A904695423DD0A5424ED0594E33
:10544000AA1B2F2A37D8584A93461268944601223D
:1054500061469246824011401F22104052468240CF
:10546000924601918022514658468150BFF35F8F8A
:10547000EFF305829346002A32D101232A009A4392
:105480009068844208D17CE04B005B189B00F318C5
:10549000986884422ED01A00062151560029F3DA6A
:1054A00084424DD0019B002B1FD0C02251463E4B61
:1054B000520099501960394B9B68DD51BFF35F8FE3
:1054C000BFF35F8F0022344B1A6089F3108803B05A
:1054D000F0BCBB46B246A946A046F0BD1500EAE7BF
:1054E0009342CAD000F070FEC7E7802351462E4A8F
:1054F000D150E0E706215956002922DB4A00501816
:10550000800034188046A0689860E079D871062041
:1055100020569871002825DBA488F01A640524150C
:1055200044440019E0240005400D240220439880E3
:1055300052181E4B9200B6181A781970B271B1E762
:105540001300594600290FD1FF31917118499180FC
:1055500016490A789A71174A9B1B5B415A43120DF0
:105560000A709FE71448E2E7144A1549D21A083A2C
:105570005002400D01439980124952080A43DA80D3
:1055800090E70621515613000029B7DA5A46002A3F
:10559000EAD14546DCE7C046240100D000ED00E03A
:1055A000CD0100105C02002000E100E02C0B022085
:1055B00001BDFFFFAAAA000001BD00009602002065
:1055C00000F0FFFF00F8FFFF10B583080400032080
:1055D0002040FF24054AC0009446844081409B003F
:1055E00063441A68A2430A431A6010BD00E400E055
:1055F00070B501240443EFF30581EFF3108C72B60C
:10560000214A1368002BFCD0BFF35F8F1F4B0500AE
:105610001F4AED1A6D416A43120D1E4D8900AE6896
:1056200052B27658A6421CD00621595691421CD03F
:1056300012215956914222D01E215956914220D012
:105640002A2159560324914210D0134B19781A700D
:105650008171BFF35F8F00220B4B1A608CF31088AF
:1056600070BDAB680D4C5C50EFE700246100091978
:1056700089005B18FF21997109499980E5E70124A8
:10568000F4E70224F2E7C046240100D05C020020C7
:10569000AAAA000000ED00E02C0B0220CD010010B2
:1056A00001BDFFFF024B9C466144890001607047C9
:1056B00040000034F0B5C646164D174E2C0000B51C
:1056C000B54224D200230127984623687F42002B4D
:1056D00011D0FFF7DDFD01002800FFF7E3FF43468F
:1056E00067602372BFF35F8F0C34B4420FD223681C
:1056F0002500002BEDD1FFF7CBFD01002800FFF7BF
:10570000D1FF6760BFF35F8F0834B442EFD380BC32
:10571000B846F0BDF802002008030020F0B5DE46D0
:1057200057464E464546E0B585B0EFF30582032364
:1057300013409A0011000392B64A52589046012233
:105740009A40B54B91461A6031E043469B881BB2A4
:10575000002B00DB9DE043469B79002B00D0EFE05F
:10576000434608241C5F002C00DA17E142465269C8
:10577000630094461B19DB0063449C68DD68631C6E
:1057800000D113E1A54B03999C4661449A6A0B69C9
:10579000A01A9B1A984200D20C61A04800F0D2FADD
:1057A000241A8D41002D00DDF8E000D12EE14B469A
:1057B0009A484363434608229B5E9A46002BC4DB0B
:1057C000424652695B0093465344DB009B445B4670
:1057D0009E68DF6800F0B6FA801BB9410029B4DB8F
:1057E000002F00DAEDE05B468D4A1B69934200D141
:1057F000E0E041465A460820085E52880004104303
:105800005A465169984704000D0023002B4300D1EC
:10581000D7E0002D00DBF0E0361BAF4134003D0047
:105820005B469C60DD600021595E00298DDB4346AC
:105830005B6922009C462B0048004018C000604471
:105840008668C768921BBB41002B00DA7DE74346A0
:10585000664602000094019519810CE07B00DB197B
:10586000DB00F318009801999C68DD68001BA941D2
:10587000002904DB1A000023D75E002FEEDA5B4616
:105880001F805346138043469B881BB2002B00DACF
:1058900061E743461A69EFF3108172B61368002B73
:1058A000FCD0BFF35F8F43469B8842461BB29A46AB
:1058B00001235B4293801369BFF35F8F00221A605C
:1058C00081F310885346002B00DA44E743465B69B6
:1058D0009C46082343449B4653465F004346574437
:1058E000FF0008229A5E67445E46BC68FD68002A95
:1058F00019DB3B000094019567469C4604E01E00BE
:105900000023F25E002A0BDB0098019953009B18DC
:10591000DB00FB189C68DD68001BA9410029EEDA5A
:105920006346BC461F005346338000217B5E3A80AD
:105930009A46002BD0DA43469B79002B00D10FE723
:10594000002342469371434646460821595E083675
:105950004B1C23D047468C46556902E006004B1C81
:1059600017D04B005B18DB00E8180A00E95E43889B
:105970001BB2002BF2DA01235B42DC178360C460A8
:105980006245ECD031803B89944603803A814B1CC0
:10599000E7D16446B846002C00DBE7E640BF05B01F
:1059A000F0BCBB46B246A946A046F0BD6B1C00D079
:1059B000E8E6F2E65B465C69200023699847002828
:1059C00021D15B4642461B8813811269EFF3108395
:1059D00072B611680029FCD0BFF35F8F424659466A
:1059E00052880A804246514651801269BFF35F8F48
:1059F0000021116083F31088A7E6084800F0A2F99F
:105A000024184D410CE765682468FEE6002C00D19F
:105A1000CDE6C3E7640700203C7005400040054028
:105A20001D570010074810B50268EFF3108172B6D9
:105A30001368002BFCD0BFF35F8FFBF701FD002044
:105A4000002110BD1C0A002070B52E4C2569002DC8
:105A500004D00A212C48FFF725FE70BD2B4E0321F0
:105A6000300000F065F9E660FFF712FC284B0322D6
:105A70009C46D02322701B061B6801216370254BB6
:105A80006044A3600F23800020610220638063696B
:105A90004942A18019800231198647311D8358522D
:105AA00018315A5275325C39995218320131995273
:105AB0001832013199521832013199520835183291
:105AC0009D520231183299521832013199521832CE
:105AD00001319952183201319952183201319952DB
