:020000041000EA
:1000000000B5324B212058609868022188439860DF
:10001000D860186158612E4B002199600221596106
:100020000121F02299502B49196001219960352056
:1000300000F044F80222904214D00621196600F024
:1000400034F8196E01211966002018661A6600F04E
:100050002CF8196E196E196E052000F02FF8012189
:100060000842F9D1002199601B49196000215960AB
:100070001A491B48016001219960EB211966A021F2
:10008000196600F012F800219960164914480160C1
:100090000121996001BC002800D000471248134993
:1000A000086003C880F30888084703B5996A0420EC
:1000B0000142FBD001200142F8D103BD02B5186610
:1000C0001866FFF7F2FF186E186E02BD00000240BE
:1000D000000000180000070000035F00212200005C
:1000E000F4000018222000A00001001008ED00E03C
:1000F00000000000000000000000000074B24E7A12
:1001000000200420F7010010C3010010C5010010F9
:10011000C1010010C1010010C1010010C101001097
:10012000C1010010C1010010C1010010C701001081
:10013000C1010010C1010010C9010010CB01001065
:10014000CD010010CD010010CD010010CD01001037
:10015000CD010010CD010010CD010010CD01001027
:10016000CD010010CD010010CD010010CD01001017
:10017000CD010010CD010010CD010010CD01001007
:10018000CD010010CD010010CD010010CD010010F7
:10019000CD010010CD010010CD010010CD010010E7
:1001A000CD010010CD010010CD010010CD010010D7
:1001B000CD010010CD010010CD010010CD010010C7
:1001C00000BE00BE00BE00BE00BE00BEEFF3058054
:1001D000103800BEF2EB8871DC7A0010087B00104A
:1001E0003802001090A31AE71E481F49086006C88D
:1001F00081F3088810471D480068002801D019487D
:10020000F3E70DA40ECC002902D000F012F8F9E7B4
:100210001749184A002000E001C19142FCD116495B
:100220008847164988471649884700BEFDE701C937
:1002300001C29A42FBD37047087B0010C000002027
:10024000E8020020307D001000000420000004209F
:10025000307D001000100420001004200000000079
:10026000704700000000000008ED00E0000000D032
:10027000E80200201C0B0220BD6D0010510400108C
:10028000B56D0010F8B5C0460448054B10B5834263
:1002900003D0044B002B00D0984710BDE80200208B
:1002A000E80200200000000006480749091A8B10E8
:1002B000C90FC91810B5491003D0044B002B00D04A
:1002C000984710BDE8020020E8020020000000006E
:1002D00010B5074C2378002B09D1FFF7D5FF054B4C
:1002E000002B02D0044800E000BF0123237010BDA2
:1002F000A8060020000000001C760010054B10B579
:10030000002B03D00449054800E000BFFFF7CCFFF5
:1003100010BDC04600000000AC0600201C76001096
:10032000F0B5CE46474601240025802280B583B033
:1003300000231549009492001448019502F0FCFB3B
:10034000802200230094124912480195920002F085
:10035000F3FB114BD0279946104B00249846104EC2
:100360003F06396833688B4203D04846316006F057
:1003700043FF2100404606F03FFF651C094802F09C
:10038000D7FE2C00EDE7C04620760010D503001004
:1003900030760010A903001040760010507600104F
:1003A00030020020B80B000070B5D025074C084E75
:1003B0002D06296823688B4203D03000216006F0A7
:1003C0001BFF0A2002F0B4FEF3E7C046280200201B
:1003D00068760010F8B5D0260D4C0E4F0E4D36063F
:1003E000316823688B4203D03800216006F004FF97
:1003F00000F016F9002807DBC1B2280006F0FCFE69
:1004000000F00EF90028F7DA0A2002F091FEE7E783
:100410002C02002088760010A476001000B585B06C
:1004200003AB01938022022392000093064900232C
:10043000064802F081FB0121039801F0A7FB02F0BE
:100440000FFD05B000BDC046B476001021030010BA
:1004500010B506F0F5FD00F0B7F800F06DF80449AE
:10046000044806F0C9FEFFF7D9FF002010BDC046C2
:10047000C0760010D076001010B52A4C012322005F
:1004800082B00021284807F097F86B46228807338E
:100490009208D2B21A701A7852B2002A3CDB234A70
:1004A0001978490603D50220117801431170197893
:1004B000890603D504201178014311701978C90603
:1004C00003D508201178014311701978090703D565
:1004D00010201178014311701978490703D52020A5
:1004E0001178014311701978890703D540201178DC
:1004F000014311701B78DB0703D5802113780B4370
:1005000013701078C0B200F06FF80223084A13602D
:10051000084A136002B010BD0120044A117801435B
:100520001170BDE70407002000C00340190B022032
:1005300004F0034004E0034070B51E4C1E4806F072
:10054000D1FD20001D4906F055FFC02002224A259A
:100550001B4B80011E1861683260206811404540C5
:10056000CF20284080256D016519286080208001FA
:1005700084466344196061683260114002321A6037
:1005800010201960012103F087FA0121122003F0E5
:1005900083FA0121132003F07FFA1220094903F0A6
:1005A000C5FA0121122003F0A3FA0623002063619B
:1005B00070BDC04600C00340EC76001000350C0052
:1005C00004C00340790400100023044A0449137056
:1005D0000B8004490B80013313707047180B022005
:1005E000160B0220140B022010B50A4A1378002BB8
:1005F000FCD000231370084B084C198860541988EC
:10060000013189B219803F211888014019800123E6
:10061000137010BD180B0220160B0220C406002018
:100620000A4B19880A4B1A8891420BD019881A88EC
:10063000013292B21A803F22188802401A80054B7C
:10064000585C704701204042FBE7C046160B022071
:10065000140B0220C40600200FB400B5084883B074
:1006600006F040FD049B002B07D005A9180001915E
:1006700006F086FB034806F035FD012006F098FBE6
:10068000047700104C76001010B50148FFF7E4FF26
:1006900014770010F0B5C646431E00B50A3314D8CF
:1006A00007231A00083004000240034205D001333A
:1006B0009B1ADA43824208D3C41801F029FB344A5A
:1006C00027001568002D29D10EE001F021FB304AEA
:1006D0001368002B06D0002502F01EFD280080BC08
:1006E000B846F0BD0027002407202A49084248D117
:1006F00080239B02CD1808000B000021264E083DE8
:10070000716030600726B5431560244AEB1A136008
:10071000234A69602960136043600560002FDADDB9
:100720001F4F3E68A642D6D31B48036804E01A68F0
:10073000002A04D0180013005968A142F7D3AB4235
:10074000C9D01D001A680835904602600A1B102A9D
:1007500005D919194A6042460A60016021000F4A12
:10076000761A10683E60864200D216608022120619
:10077000114300221A600B4A596013680133136059
:10078000AAE7CB1D8343802080020D181800B4E730
:100790006C070020100A0020D00A0220A00A0220C4
:1007A000900A0220AC0A022070B5002807D0083851
:1007B00043680400002B02DA0268002A00D070BDF2
:1007C0005B005B084360050001F0A2FA154A61680E
:1007D00013685B181360144B1A001B689C42FBD80B
:1007E00050681618B44218D0681883420AD02B609B
:1007F000AA4200D015600D4A13680133136002F05D
:100800008BFCDCE70A4800688342F0D058681B681C
:100810008446614469602B60EAE70918150051605D
:10082000E2E7C046900A0220D00A0220B00A022065
:100830006C0700207047C046000000000000000068
:100840000BA10CC9126892009B581868203080F3E5
:100850000988022080F31488BFF36F8F3FBCAE4637
:1008600008BC04BC62B61847C046C046C046C04675
:10087000000000D05C070020D0231B061A6DD207B1
:1008800004D501219A6D1A6D1142FBD1D023FF22AC
:100890001B061A658022024B52051A607047C0463B
:1008A00004ED00E000000000000000000000000077
:1008B000EFF309811AA00CC8106880001B18186893
:1008C00020390160F0C144464D4656465F46F0C1AE
:1008D000146E556E566F176F3039F0C1106808B539
:1008E00072B601F0BFFB62B60CBC1168086810302C
:1008F000F0C8A046A946B246BB4680F309880D223F
:1009000012073038F0C81466556656671767F0C886
:100910001847C046C046C046C046C046C046C0464E
:10092000000000D05C07002010B502F081FC04003C
:1009300001F068FA002803D08022034B52051A60A8
:10094000200002F007FD10BD04ED00E010B5FFF738
:100950009BFEC04610B58024031F64041C60043B4A
:1009600019600349043B1960143B40381A6010BDFC
:100970004D0900108022044B52051A60BFF34F8FBF
:10098000BFF36F8F7047C04604ED00E0D0231B0615
:100990001B6808499B005A58002A08D0002058506C
:1009A00005495B58BFF35F8F106083F3108862B610
:1009B0007047C046F8090020180A0220EFF31080A3
:1009C00072B6704780F310887047C046D02300226B
:1009D0001B065A657047C046002310B5084A094CEB
:1009E00005202360136003F009F8FA21890004F060
:1009F0007FF8054B013818600723236010BDC046FF
:100A000018E000E010E000E014E000E070B5224BD8
:100A10001A78D0231B061B689A4230D0FF231F4A46
:100A20001B0411680E200B4313601D4903F022FEC6
:100A30000B201C4903F01EFED023FF221B061A6563
:100A40001A6DD20704D501219A6D1A6D1142FBD19E
:100A5000D0252D062C68FF210F34200003F072F9F9
:100A60002000114903F062F80121200003F040F852
:100A7000FFF7E6FE286801F0F5FAFFF705FEFFF73D
:100A8000ABFFFF23054A1B0611680F200B431360C1
:100A9000064903F0EFFDC1E73402002020ED00E03D
:100AA000B10800103508001079080010290900105D
:100AB00010B572B6FFF7AAFF10B50E2002F0D2FFF4
:100AC0000F2002F0CFFF0022034B04481A7003F0FE
:100AD0003FFEFFF79BFFC04634020020B10A001022
:100AE00010B50A4B1B78FF2B0CD0EFF305800028C4
:100AF00005D0D0231B061B684000C01810BD01F0B4
:100B0000B9FEFBE7D0231B061868F7E73402002084
:100B100000B51C4A0B00127883B0FF2A29D01A496D
:100B200002688C46022162449210FF319140090A0A
:100B300040BF0068BFF35F8F0022026083F310881C
:100B4000EFF30583DBB2002B05D1104B186800F0E2
:100B50004DF903B000BD0D4B0192186801AA00F0D9
:100B60008DF9019B002BF4D08022094B52051A60AD
:100B7000EFE740BF0268BFF35F8F0021116083F38E
:100B80001088E6E73402002000FFFF2F8C0A0220C5
:100B900004ED00E0F0B51D00314B07001B780E009E
:100BA000140083B0FF2B4ED003F092FC22002B00E8
:100BB000121A8B4101212B484942801859410029C2
:100BC00021DC1CD03B68BFF35F8F00221A6086F3E4
:100BD0001088254B5A6A95420AD98022234B520528
:100BE0001A60BFF34F8FBFF36F8F002003B0F0BDCB
:100BF0009B6A0120A342F9D29542F7D1EDE7FA238F
:100C00009B009842DED3FA220023920003F096FF65
:100C1000031ED7D0D0221206116815483A68890001
:100C20000A5014480E5014498C4602216244921016
:100C3000FF319140114A090A1068009301220023F4
:100C400000F078F8C5E70368BFF35F8F00221A60F1
:100C500081F310882000290003F0B8FBC6E7C046E6
:100C60003402002018FCFFFF0040054004ED00E0C6
:100C7000F8090020180A022000FFFF2F8C0A02202A
:100C800010B500F04BF8014B186010BD8C0A022023
:100C9000F8B5DE4657464E464546E0B505000F001E
:100CA000060001F035F829682C6939430C362960B3
:100CB000A6422AD0002398468023DB049B4680234B
:100CC0005B049A4680239B0499460EE00B420AD0AF
:100CD00057463A4202D042461A4390464B46194381
:100CE00002F058FA2968A6420DD020005F4602683B
:100CF000646813021B0A3A42E8D01F000F40BB424F
:100D0000E6D0A642F1D143469943296002F004FAA5
:100D1000F0BCBB46B246A946A046F8BD10B51C20A3
:100D2000FFF7B8FC041E03D0002308C000F0B0F8A1
:100D3000200010BDF0B5C646060000B50D00904677
:100D40001F0000F0E5FF3468002F0AD125420CD0C7
:100D50004346002B0CD02300AB43336002F0DCF998
:100D600008E02B0023409D42F2D0069B002B05D1CA
:100D700002F0D2F9200080BCB846F0BD4346002BFB
:100D800016D180210023C904002F00D11900069A32
:100D90002943301D01F090FB02F0BEF900281CD061
:100DA00002F00AFB0400830107D52402240AE1E7CC
:100DB000A0218023C9045B04E6E701F0D7FD346875
:100DC000002F0DD12C4205D04346002B02D023002A
:100DD000AB43336002F06EFAE7E701F0B3FDDFE703
:100DE00023002B409D42F5D1EEE7C046F8B5DE4624
:100DF00057464E464546E0B505000F00060000F098
:100E000087FF29682C6939430C362960A6422AD00D
:100E1000002398468023DB049B4680235B049A468C
:100E200080239B0499460EE019420AD057463A4265
:100E300002D042461A4390464B46194302F0AAF9A3
:100E40002968A6420DD020005F460268646813023C
:100E50001B0A3A42E8D00F001F409F42E6D0A6424C
:100E6000F1D143469943296002F056F92868F0BC55
:100E7000BB46B246A946A046F8BDC04610B5130011
:100E80000A000100014802F0B7FC10BD910C0010EF
:100E90000300083301224360C36003610023524210
:100EA000826003607047C046002303617047C046FC
:100EB00043689A684B608A609A68516099600368D9
:100EC0000861013303607047030030B50C680833D4
:100ED000621C0DD01A005B681D68A542FAD94B60F0
:100EE000996003688A60013351600861036030BD16
:100EF00002695368F3E7C0460369416882688A6003
:100F000051605968814205D0002202611A68501E62
:100F1000186070475A60F7E7F0B5DE464E46574610
:100F20004546E0B585B0060001F020FD4523F45CA0
:100F300064B2002C21DD213B994621339B46B1440C
:100F400009E0AB6BEA6B0396934245D3013CE3B2F5
:100F500064B2002B11D0B56C002DF2D1736A002B56
:100F60000BD0484601F03CFB0028EFD001F078FCA4
:100F7000013CE3B264B2002BEDD14523FF22F254D1
:100F800002F098F901F0F2FC4423F45C64B2002C06
:100F900016DD3500103504E0013CE2B264B2002AEF
:100FA0000ED03369002B0BD0280001F019FB00286C
:100FB000F2D0013C01F054FCE2B264B2002AF0D15C
:100FC0004423FF22F25402F075F905B0F0BCBB4691
:100FD000B246A946A046F0BD5B462A6CEF5CAB6BFF
:100FE0007FB29846002A13D12B680193002B30D092
:100FF00000239A4643460133AB637B1C17D16B6ACF
:10100000002B1DD15346002BA0D001F029FCAFE7E7
:10101000686803A904F0E4FB2A6C6B689446AA682C
:1010200063446B609342E3D32B686B60E0E700F0AE
:10103000E3FEB842E6D95B4601377FB2EF54E1E701
:101040002800243001F0CCFA0028DBD001F008FCA5
:101050008EE7A86801F01CFC019B8246AB60C9E7E3
:10106000F0B5C64600B5846C82B0A36BE26B002578
:101070000190934204D3280002B080BCB846F0BD72
:101080004523226CE65CA76B76B2002A1CD0606810
:1010900001A904F0A5FB226C63689446A26863442E
:1010A0006360934214D3236863600137A763731CA2
:1010B00013D1636A002BDED02000243001F090FAB7
:1010C0000028D8D00125D6E723689846002B0DD0FC
:1010D00001370025A763731CEBD000F08DFE86421C
:1010E000C9D24523013676B2E654C4E7A06801F0C0
:1010F000CFFB43460500A360D7E7C046F8B505001F
:101100000E001700002846D00B0C020C002B34D127
:10111000331C002A35D130006843030055333AD8D8
:101120005430FFF7B7FA041E35D00300002E00D06C
:1011300054332360E563266401F018FC216CE36BF3
:1011400022684B43D0185B1AD3186260E360002515
:10115000FF234422A0602000A563A3540132A354BE
:101160001030FFF795FE20002430FFF791FE02F0CB
:10117000A1F85023E754A5640EE0002A0BD11A1CF5
:10118000031CB0B2A9B2414398B293B24343090CD5
:101190005B181B0CBFD000242000F8BDF8B54E46EC
:1011A000DE46574645460400E0B591461D000F0057
:1011B00002F03EF8A36BE26B060093423AD3022D95
:1011C0000AD00024300002F0C5F82000F0BCBB4675
:1011D000B246A946A046F8BD4523E35C226C5BB24B
:1011E0009846A36B9B46A36B9A46002A2DD03900E4
:1011F000E06804F0F5FAE168236C5A42CB1A2168E2
:10120000E3608B4203D2A3689C466244E26053468B
:10121000022D54D00133A363434601331ED000F0A6
:10122000EBFD80452DD24346452201335BB2A354EA
:101230000124C7E74523E35C226C5BB29846A36BAD
:101240009B46A36B9A46002A1DD12768002F3AD0EF
:1012500053460133A36343460133E0D1A36C002B13
:1012600022D0022D02D15B46002B0AD12000FFF7CD
:10127000F7FE002805D04B46002B02D001234A463A
:10128000136001249EE7002DB1D13900606804F09D
:10129000A7FA226C63689446A26863446360934231
:1012A000D6D323686360D3E7636A002BE9D02000BC
:1012B000243001F095F90028DDD1012482E7002BCC
:1012C000C8D10133A7E7A06801F0E2FA5346A7604E
:1012D0000133BFE7F0B54746CE46040080B585B080
:1012E0008846019201F042FBA76B002F5ED1019B63
:1012F000002B3BD002A801F0DDF9002344269946DB
:10130000452501F0D7FF00F003FD01F02FFBA35DA1
:101310005BB2013301D14B46A355635D5BB2013330
:1013200001D14B46635501F0C5FF01A902A801F0A8
:10133000CDF9002822D101F019FBA36B002B2AD193
:1013400001F0B8FF20000199243001F011F82000CD
:10135000FFF7E2FD01F0E0FE002824D001F006FBDB
:10136000A76B002F22D1019B002BCAD101F0A2FF55
:10137000002005B0C0BCB946B046F0BD2000FFF764
:10138000CBFD01F0C9FE01F0F1FAA36B002BEDD00B
:1013900001F090FFE2E701F08DFF2000FFF7BCFDB8
:1013A00001F0BAFEDAE701F0CDFAD7E7226C002AA5
:1013B00008D0E3689918A368E16099420BD24046CF
:1013C00004F00EFA2369013FA763002B06D101F058
:1013D00071FF0120CDE72168E160F0E720001030C7
:1013E00001F0FEF80028F2D001F0ACFAEFE7C046B9
:1013F00070B500290ED000260023374DDA00AC1856
:101400006468844259D0002E05D00133082BF5D1F1
:101410003160706070BDAC58002C4BD05C1C072B49
:10142000F8D0E200AE187668B04246D0AE58002E32
:1014300047D09C1C062BEDD0E200AE187668B04277
:101440003BD0AE58002E3CD0DC1C052BE2D0E20095
:10145000AE187668864230D0AE58002E31D01C1DB2
:10146000042BD7D0E200AE187668B04225D0AE5833
:10147000002E26D05C1D032BCCD0E200AE1876687F
:10148000B0421AD0AE58002E1BD09A1D022BC1D0EC
:10149000D4002E197668B0420ED02C59002C13D0EF
:1014A000012BB7D0EB6B984212D0AB6B002BB1D1B4
:1014B00007233822AE18A8E7D200AE18316070605A
:1014C000A8E72300AE18A0E71300D200AE189CE7EF
:1014D0003822AE18F2E7C0466806002070B5040056
:1014E00016000D0001F042FA4422A35C5BB2013306
:1014F00001D10023A3544522A35C5BB2013301D187
:101500000023A35401F0D6FEA36B002B03D02000D0
:10151000FFF702FD70BD200032002900243001F0E9
:1015200019F8F4E710B5FFF725FA054C2368022BEC
:1015300000D8FEE7FFF71EFA2368022BFAD8F8E777
:1015400078070020836B70B5002B02DB836B012BC7
:101550002FDD0126294C036B5A1E2368196B236863
:10156000DB6B3340C91A23689B6B002B03DB2368BA
:101570009B6B012B1EDD01256D4201266368196BF3
:101580006368DB6B3340C91A63689B6B002B03DB1A
:1015900063689B6B012B18DD00206B1C09D0D023E6
:1015A0001B061B68984223D0850063599B6B02334E
:1015B00017D170BD124B1D68002DDCD18A42DADBD9
:1015C00043683342D7D00A00D7E70D4B5B68002B46
:1015D000E2D19142E0DC43685B081E42DCD001208E
:1015E000DDE7FFF7F3F90222635952429A63E0E71D
:1015F0000122034B8000C250DBE7C0465C0700209D
:101600000C0B0220F0B5D6464F464646484BC0B5B7
:101610001B6804009846474B0F001B689946464BD1
:101620001B689A46EFF3108172B6D02636063368EF
:10163000424D9B00EA5881F3108879230021D15450
:10164000EFF3108272B633689B00E85882F310887B
:101650000830FFF751FC631C30D04444EFF3108195
:1016600072B6D022120613689B00EB5881F31088E3
:101670009C60A04515D8EFF3108072B613689B00EC
:10168000E95880F3108848460831FFF71DFC2C4BC1
:101690001A68A24200D91C60E0BCBA46B146A8460E
:1016A000F0BDEFF3108072B613689B00E95880F329
:1016B000108850460831FFF707FCEDE7002FCCD02B
:1016C000204B5A68EFF3108072B631688900695870
:1016D00080F31088CA60EFF3108072B63168890019
:1016E000695880F3108890680861EFF3108072B633
:1016F00031688900695880F310889068083141602A
:10170000EFF3108072B631688900695880F3108851
:1017100008319160EFF3108172B632689200AA58D6
:1017200081F3108893611A6801321A60B4E7C046E9
:10173000000B022068070020700700205C070020D3
:10174000A40A0220D80A0220D020000603681D49FE
:101750009B005A5870B5002A2FD0013A5A500068A1
:1017600083005A58002A28D1174A9C58174A1378E0
:10177000013BDBB21370002B08D10121144D2B5C0F
:101780008B432B54BFF35F8F124B1960D0231B0682
:1017900019685378013BDBB25370002B09D102204A
:1017A0000B4A535C83435354BFF35F8F01220A4BB0
:1017B0001A60FFF7EBF8002C00D170BDFFF7DAF8E4
:1017C000FBE7C046200A02200C0B0220140A02206C
:1017D000100A0220380100D03C0100D0D023F0B51F
:1017E0004F46D64646461B061B684B4A9B009B58F5
:1017F000C0B59946494B4A4F98464A4B9A4638E0FD
:10180000464D484C6B78013BDBB26B70002B08D126
:101810000221A35C8B43A354BFF35F8F0122424B91
:101820001A60FFF7B3F872B6D0231B061A683E4B56
:101830001968002947D0BFF35F8F012302216B7025
:10184000A35C0B43A354D021384B090618680A68DF
:10185000002831D0BFF35F8F012301212B70A35CDF
:101860000B43A354D022120613689B00FE50002E97
:1018700046D04B469B6B02332CD1D02109060A6817
:101880009300FE58002EBBD000224546FA502B781C
:101890000A68013BDBB22B70002B02D054460A6869
:1018A000B0E754460120A35C8343A354BFF35F8F8A
:1018B0001E4B18600A68A5E7A05CC0070FD4196822
:1018C0000029C7D1FBE7A15C890715D41968002955
:1018D000B1D1FBE7E0BCBA46B146A846F0BD2A78D4
:1018E000531C2B700B689B00FE50002EC1D10B685F
:1018F0002A70002ABDD105E06B7801336B70A2E736
:1019000013682E700121E25C8A43E254BFF35F8FBB
:10191000064B1960ADE7C0465C070020140A0220A0
:10192000200A0220100A02203C0100D0380100D019
:10193000F8B5EFF3108772B6D0231B061A682D4B4B
:101940002D4C196800293ED0BFF35F8F012302217F
:101950002A4D6B70A35C0B43A354294E3368002BB4
:1019600021D0D021274B090618680A68002823D007
:10197000BFF35F8F012301212B70A35C0B43A354A2
:101980003368002201333360D0231B061B682A70A2
:101990000121E25C8A43E254BFF35F8F194B196067
:1019A00087F31088F8BDFFF719FFD021154B090602
:1019B00018680A680028DBD1A05CC0070FD419683A
:1019C0000029D5D1FBE7A15C890703D41968002958
:1019D000BAD1FBE7094D6B7801336B70BDE72A780C
:1019E000531C2B703368013333600B682A70002A54
:1019F000D6D1CDE73C0100D0100A0220140A022003
:101A0000300A0220380100D04F4BF0B54646D6468A
:101A10004F4698464D4BC0B59A464D4C4D4D4E4E97
:101A20002368002B35D072B62B68002B0FD0D02343
:101A30001B0619688A00B358002B3FD00133B350FE
:101A4000D0231B061B689B00F358012B2FD0236863
:101A5000002B23D0414BDB68DF68BB6B013351D1D6
:101A600038000830FFF748FA3D4A1368013B13601D
:101A70002368013B23602B68002B01D0FFF764FE35
:101A8000786BFEF791FE3800FEF78EFE2368002B80
:101A9000C9D1E0BCBA46B146A846F0BD2B68002BC0
:101AA000BED0FFF751FE2368002BBCD1F1E74346BF
:101AB0001B68002BCBD1FFF791FEC8E7294A1368BA
:101AC000002B2CD0284BBFF35F8F012250460227FA
:101AD00042705A5C3A435A54D02212069446116816
:101AE000224A1768002F13D0BFF35F8F01220270C4
:101AF00001205A5C02435A54D0231B0619688A00FD
:101B0000B3589BE72B68002BC3D0FFF71DFEC0E73F
:101B10005F5CFF0710D41768002FE5D1FBE7124B7D
:101B2000585C800703D410680028CCD1FBE7074835
:101B3000427801324270CFE7037801330370634685
:101B400019688A00B35879E7300A0220140A022083
:101B50002C0A0220CC0A0220200A0220EC0A0220D1
:101B6000280A02203C0100D0100A0220380100D0CF
:101B700010B5FEF7FFFE044CFFF746FF2368022B6B
:101B8000FAD9FEF7F7FEF7E778070020F8B5CE465A
:101B9000474604000D0080B572B6544E3368002BE2
:101BA00010D0D0231B061868514A81005358002BCF
:101BB00034D001335350D0231B061B689B00D358ED
:101BC000012B24D0002C16D0336862686560002B8E
:101BD00008D0A36B002B02DBA36B012B4BDD9543DD
:101BE000AB0744D13368002B01D0FFF7ADFDC0BC7B
:101BF000B946B046F8BDEFF3108272B6D0231B068B
:101C00001B683C499B005C5882F31088DCE73A4B28
:101C10001B68002BD6D1FFF7E1FDD3E737490B68EE
:101C2000002B4AD0364BBFF35F8F364989460121DE
:101C30004F4679700227BC466746195C39431954F0
:101C4000D02109068C4608682F490F68002F2DD037
:101C5000BFF35F8F01214F4639700127195C39436B
:101C60001954D0231B06186881005358A1E720009F
:101C7000FFF768FCB6E7A06B0123C5402B42B1D14A
:101C8000D0221206126890420CD01A4C85002B59B3
:101C90009B6B0233A6D0FEF799FE02222B595242CB
:101CA0009A639FE7194A800083509BE71F5CFF07F8
:101CB0000BD40F68002FCBD1FBE7114B1F5CBF0784
:101CC0000DD40F68002FAED1FBE74B4649461B7879
:101CD00001330B70634618688100535869E709495E
:101CE00089464846497801314170A9E7CC0A02206B
:101CF000200A02205C070020300A02203C0100D0AC
:101D0000100A0220140A0220380100D00C0B022015
:101D1000F8B5304B1B68002B00D1F8BDEFF31087EE
:101D200072B6D0231B061A682B4B2C4C196800295D
:101D300031D0BFF35F8F01230221294D6B70A35C6B
:101D40000B43A354274E3368002B21D0D021264BC0
:101D5000090618680A68002824D0BFF35F8F0123A2
:101D600001212B70A35C0B43A35433680133336010
:101D7000D0231B061A6800232B700121A35C8B4320
:101D8000A354BFF35F8F184B196087F31088C4E723
:101D9000FFF724FDDAE7A15C89070AD41968002956
:101DA000C7D1FBE7A05CC00708D419680029D4D1CB
:101DB000FBE70B4D6B7801336B70C3E72B785A1C34
:101DC0002A703268013232600A682B70002BDCD135
:101DD000D3E7C046CC0A02203C0100D0100A022002
:101DE000140A0220300A0220380100D0014B186882
:101DF0007047C046000B0220014B18687047C04670
:101E0000280A0220F8B5DE4657464E4645468A4B1C
:101E1000E0B51B68002B4FD1884B1D686A1C9346A8
:101E20001A60002A54D0864B99464B461B685B4586
:101E300066D9844C844D2B681A6B93009B189B00C9
:101E4000E358012B00D8AEE06B681A6B93009B1827
:101E50009B00E358012B00D8BFE0D0231B061A6873
:101E600001241600002E00D1E1E0002A00D1BAE0E2
:101E70002B689B6B023306D00020FEF7A7FD0222E1
:101E80002B6852429A63002C00D1B3E00024012E4B
:101E900000D1CEE0D0231B061B68012B00D1C1E08E
:101EA0006B689B6B02330CD00120FEF78FFD022282
:101EB0006B6852429A6304E00024644A1368013359
:101EC00013602000F0BCBB46B246A946A046F8BD50
:101ED0005F4B604A19681068186011605E490A68B3
:101EE00001320A601A681268002A6FD1544B994671
:101EF00001234A465B4213604B461B685B4598D8FA
:101F0000534E504C33681B68002B00D182E00023F5
:101F10009A46524B984632E0524682611A68013A1C
:101F20001A60C36A002B0ED0026A416A5D68916034
:101F3000416A4A6002001C32954232D05246C26267
:101F40001A68013A1A604346026B1B689A4201D92B
:101F500043461A6093009B189B00E1184A689568F5
:101F6000C260056195686F609760E25881610132D7
:101F7000E250FFF7E7FA33681B68002B4AD033685A
:101F8000DB68D86883689B4549D307008369C168CB
:101F9000026908378A6051605968B942BCD15A60F9
:101FA000BAE75960CAE76B681A6B93009B189B00ED
:101FB000E358012B24D9D0231B061E68284B32007E
:101FC0001B680124002B00D04CE75FE71B681C4A0C
:101FD000DB6891461B68136027E7D0231B061A684D
:101FE000002416003EE701221D4B1A600023002C3E
:101FF0001BD11C001A4B5B68002B00D161E746E740
:10200000D0231B061A68164B16001C68002CF2D051
:10201000002427E701234A465B4213600AE74A4649
:10202000136007E70E4A53604BE71C0032E70123B9
:10203000DDE7012445E7C046300A0220000B0220FC
:10204000A40A0220780700205C070020B40A0220BE
:102050006807002070070020A80A0220380A022022
:102060000C0B0220F0B5D02357464E46DE464546BF
:102070001B06E0B51A68B54B81461968B44F83B0AA
:10208000002900D1D6E0BFF35F8FB24B9846012301
:1020900041464B700221BB5C0B43BB54D0231B0653
:1020A0001A68AD4B1968002900D1BBE0BFF35F8F00
:1020B000012341460B700121BB5C0B43BB54A74B72
:1020C0001B68002B32D04B4601229800A44BC25013
:1020D000D0231B061A68434641461B78013BDBB2FE
:1020E0000B70002B07D10121BB5C8B43BB54BFF3AA
:1020F0005F8F994B1960D0231B061A6843464146EF
:102100005B78013BDBB24B70002B08D10221BB5C3A
:102110008B43BB54BFF35F8F01228C4B1A6003B01B
:10212000F0BCBB46B246A946A046F0BD4A46950063
:102130008B4A8C4C53518C4B1E689A46625963599A
:102140009269196B8B005B1888499B008C4663442D
:102150009A4277D04A46012393401800834BB1003E
:102160009C469B4603004846009038008919890028
:102170008B4408315F4661440122B44683461E0009
:102180000FE0002A04D0534650461B68013B036011
:102190006346002B44D001235B429946143FCC4454
:1021A00014393B68002BECD04B68994233D0009A2D
:1021B0000197914605E06059824222D05B688B42CC
:1021C00026D0DA68906B471CF5D157683742F5D0B6
:1021D00063595F4698634B46615993636251002986
:1021E00009D0624E0A6BB44693009B189B008E691F
:1021F00063449E4244D0D0231B061A689300E358E0
:1022000069E750683042D9D04B465F469363F2E7A6
:102210004B46019F00936346002B01D00022BAE792
:102220005F46E8E7B95CC9071DD41968002900D0EA
:102230003CE7FAE7B95C89071BD41968002900D08C
:1022400021E7FAE760590830FEF756FE63596159F5
:102250001B6B08319800C018444B80009C466044BA
:10226000FEF726FE76E7434642461B78013313709D
:1022700025E7384B984642465B78013353700DE7AB
:1022800001239C464E68CB6B61460B40D21A4946EF
:102290003300CB406146194202D063595B689E43CC
:1022A00003233340590811D0636861681D6B012313
:1022B000C96B19406D1A3340954207DA6168896B22
:1022C000002903DB6168896B01292EDDDB0792D5CC
:1022D0000125236821681B6BC96B29405B1A9A4250
:1022E00007DD23689B6B002B03DB23689B6B012BB3
:1022F00023DD431C00D17EE7D0252D062A688242CB
:102300000DD08600A3599B6B023300D176E7FEF710
:102310005DFB0222A35952429A632A686EE70123A9
:102320000F4A800013502A6868E70D494968002960
:10233000CCD1002B07D10120DEE7094B1B68002B15
:10234000D7D10020D8E72A000120C1E73C0100D006
:10235000100A0220140A0220380100D0300A02209C
:102360000C0B02205C070020380A022078070020AE
:10237000F8B5CE4647460C0080B5EFF3108272B632
:10238000D02636063368464D9B00595982F3108893
:102390001C31FEF799FD434B1F68434B1B68984661
:1023A000424B1B689946EFF3108172B633689B006D
:1023B0005A5981F3108879230021D154EFF3108208
:1023C00072B633689B00585982F310880830FEF7C4
:1023D00093FD631C2DD0E419EFF3108272B63368BD
:1023E0009B005B5982F310889C60A7420FD9EFF3E2
:1023F000108272B633689B00595982F310884846A0
:102400000831FEF761FDC0BCB946B046F8BDEFF338
:10241000108272B633689B00595982F31088404687
:102420000831FEF751FD224B1A689442EBD21C6032
:10243000E9E7204B5A68EFF3108072B631688900E3
:10244000495980F31088CA60EFF3108072B6316882
:102450008900495980F3108890680861EFF3108073
:1024600072B631688900495980F310889068083144
:102470004160EFF3108072B631688900495980F3EA
:10248000108808319160EFF3108172B632689200C3
:10249000525981F3108893611A6801321A60B2E7C9
:1024A0005C070020000B0220680700207007002056
:1024B000A40A0220D80A022070B503000E00100002
:1024C000EFF3108172B6D0252D062A68204C9200B9
:1024D000125981F31088802109063143D16159686E
:1024E000EFF3108672B62A689200125986F31088AC
:1024F0001162EFF3108672B62A689200125986F3C1
:1025000010888E685662EFF3108672B62A689200C1
:10251000125986F310888E681C327260EFF31086B1
:1025200072B62A689200125986F310881C328A60AB
:10253000EFF3108172B62A689200125981F3108865
:10254000D3621A68012101321A60FFF75BF870BD8F
:102550005C070020F8B50300080011005A68EFF38B
:10256000108C72B6D0252D062E681C4CB60036593C
:102570008CF310883262EFF3108C72B62E68B600BE
:1025800036598CF3108897687762EFF3108C72B627
:102590002E68B60036598CF3108897681C367E601A
:1025A000EFF3108C72B62E68B60036598CF3108893
:1025B0001C369660EFF3108672B62A6892001259A4
:1025C00086F31088D3621A6801321A60002901D09C
:1025D00001204042FFF716F8F8BDC0465C07002016
:1025E000C36870B5D868016A426AC36A8A6051607C
:1025F00001005C681C318C4245D00022C2621A681E
:10260000013A1A60264B1B68002B2DD10400C268CA
:10261000016983699160016908344A605A68A2427D
:1026200033D01A68013A1A601E4B026B19688A424D
:1026300027D893001C499B189B00CD186A689668A0
:10264000C2600661966874609460CA588561013200
:10265000CA50FEF777FFD0231B061B68134A9B0066
:102660009858431E984170BD114B5A689468026295
:1026700044629468616091601A68C36201321A60B2
:10268000E7E71A60D5E75A60B7E71A685960013A78
:102690001A60044B026B19688A42CAD9F1E7C04636
:1026A000300A0220380A0220780700200C0B022092
:1026B000B80A0220034B1B680360034B1B6843608E
:1026C0007047C046A80A0220000B0220F8B5CE468B
:1026D000474604000D0080B572B6574E3368002B94
:1026E00010D0D0231B061868544A81005358002B81
:1026F00058D001335350D0231B061B689B00D3587E
:10270000012B48D04E480368984663689946EFF31A
:10271000108C72B6D02109060B684A4A9B009F585C
:102720008CF310887923FF5C002F14D0EFF3108016
:1027300072B6096889008A5880F310880021012444
:10274000D1543368002B01D0FEF7FEFF2000C0BC3F
:10275000B946B046F8BD2B685A1C1AD03A4A2768C9
:1027600011688F4206D06168414503D800230124D7
:102770002B60E6E741464F46C91B8B42F6D94146DE
:102780005B1A4B442B60136823600368636000246A
:10279000D7E70024D5E72D4B1B68002BB2D1FFF7FC
:1027A0001DF8AFE72A490B68002B24D0294BBFF353
:1027B0005F8F2949894601214F4679700227BC461F
:1027C0006746195C39431954D02109068C460868BC
:1027D00022490F68002F16D0BFF35F8F01214F46AB
:1027E00039700127195C39431954D0231B06186826
:1027F000810053587DE7174B1F5CBF070AD40F6851
:10280000002FD4D1FBE71F5CFF070AD40F68002F0D
:10281000E2D1FBE7104989464846497801314170C9
:10282000D2E74B4649461B7801330B706346186864
:10283000810053585DE7C046CC0A0220200A0220DE
:10284000000B02205C070020A80A0220300A0220A8
:102850003C0100D0100A0220140A0220380100D0E6
:10286000D02301211B061B68014A9B009950704729
:102870000C0B0220EFF3108272B6D0231B061B68EC
:1028800002499B00585882F3108870475C0700206B
:1028900070B5041E08D0C36D026B816D013BC3652A
:1028A0008A4201D0002B02D00025280070BD05000F
:1028B00008352800FEF720FB2023A26D9B1AE36158
:1028C0001C4B226319688A4200D91A6093001A4986
:1028D0009B189B00C81842689668E260266196685B
:1028E00075609560CA58A0610132CA50A36B01257A
:1028F000002BDADBA36B012BD7DCD0231B06A26BEA
:102900001B689A4210D0A36B0C4E9B009B599B6B8B
:102910000233CAD0A06BFEF759F80222A36B5242D1
:102920009B009B599A63C0E7A36B054A9B009D508F
:10293000BBE7C046380A0220780700205C07002069
:102940000C0B0220D0231B061B68064A9B009A58DA
:1029500010B5002A03D00121034A995010BDFEF79B
:1029600009F8FBE7200A02200C0B022070B572B6B2
:102970002D4B1B68002B10D0D0231B0618682B4A48
:1029800081005358002B10D001335350D0231B0625
:102990001B689B00D358012B00D070BD244B1B68D3
:1029A000002BFAD1FEF71AFFF7E722490B68002B3C
:1029B0001ED0214BBFF35F8F012102251F4C617098
:1029C000195C29431954D0251D492D060E68286825
:1029D000002E15D0BFF35F8F012121700124195CF7
:1029E00021431954D0231B06186881005358CBE7A4
:1029F000114B1C5CA4070AD40C68002CDAD1FBE74D
:102A00001E5CF60708D40D68002DE3D1FBE70B4CE4
:102A1000617801316170D6E723780133237028682B
:102A200081005358B0E7C046CC0A0220200A022099
:102A3000300A02203C0100D0100A0220140A0220B1
:102A4000380100D0F0B5C64600B50500FFF78EFF8F
:102A50002D4A2E4F1368013313603B68002B27D09B
:102A60002B4E2C4A1368013313602B652A4B2A6BBB
:102A700019688A4200D91A6093009B189B00F018CD
:102A800042689168EA6029612900946808316160B0
:102A90009160F258A8610132F2503B68002B2ED1B0
:102AA0003B68002B01D0FEF74FFE80BCB846F0BD5E
:102AB0001368174E012BD4D1A0239B0098463400F5
:102AC000B04420001434FEF7E3F94445F9D1134B28
:102AD00098461800FEF7DCF9114C2000FEF7D8F9F3
:102AE0001048FEF7D5F91048FEF7D2F90F48FEF767
:102AF000CFF942460E4B1A600E4B1C60B1E728001E
:102B0000FEF720FDCCE7C046280A0220CC0A0220AE
:102B100078070020340A0220380A0220640A0220C2
:102B2000780A0220B80A0220EC0A0220D80A022001
:102B30006807002070070020F8B5CE46474696008B
:102B400080B5804630000D009946FDF7A3FD071EB5
:102B500000D1ACE07C20FDF79DFD041E00D1A9E072
:102B60007C22002102F036FE3200A5213800676386
:102B700002F030FE636B043E9C46072366449E438E
:102B8000002D5FD040232A78E2542B78002B56D0BA
:102B900041236A78E2546B78002B50D04223AA7804
:102BA000E254AB78002B4AD04323EA78E254EB7826
:102BB000002B44D044232A79E2542B79002B3ED0B9
:102BC00045236A79E2546B79002B38D04623AA79E1
:102BD000E254AB79002B32D04723EA79E254EB7907
:102BE000002B2CD048232A7AE2542B7A002B26D0B3
:102BF00049236A7AE2546B7A002B20D04A23AA7ABE
:102C0000E254AB7A002B1AD04B23EA7AE254EB7AE7
:102C1000002B14D04C232A7BE2542B7B002B0ED0AC
:102C20004D236A7BE2546B7B002B08D04E23AA7B9A
:102C3000E254AB7B002B02D04F23EA7BE2544F23BC
:102C40000022E254089D1F2D3AD820002563A56577
:102C50000830FEF729F920001C30FEF725F9202363
:102C60005D1B4A46414630006461E561A462FDF7A0
:102C700071FE01235B42A363124B2060984511D083
:102C8000114B98450ED0099B002B00D01C600123EE
:102C90005B4220006360FFF7D5FE0120C0BCB9464F
:102CA000B046F8BD0123E26B1343E363EBE7012079
:102CB0004042F3E73800FDF777FD01204042EDE7A1
:102CC0001F25C2E7711B001025150010F8B5CE4670
:102CD0004746960080B5804630000D009946FDF7C6
:102CE000D9FC071E00D1ABE07C20FDF7D3FC041E0D
:102CF00000D1A8E07C22002102F06CFD3200A52169
:102D00003800676302F066FD636B043E9C46072350
:102D100066449E43002D5FD040232A78E2542B78EE
:102D2000002B56D041236A78E2546B78002B50D0A8
:102D30004223AA78E254AB78002B4AD04323EA78A6
:102D4000E254EB78002B44D044232A79E2542B79C7
:102D5000002B3ED045236A79E2546B79002B38D0A2
:102D60004623AA79E254AB79002B32D04723EA7983
:102D7000E254EB79002B2CD048232A7AE2542B7AA8
:102D8000002B26D049236A7AE2546B7A002B20D09C
:102D90004A23AA7AE254AB7A002B1AD04B23EA7A60
:102DA000E254EB7A002B14D04C232A7BE2542B7B89
:102DB000002B0ED04D236A7BE2546B7B002B08D096
:102DC0004E23AA7BE254AB7B002B02D04F23EA7B3D
:102DD000E2544F230022E254089D1F2D39D82000D1
:102DE0002563A5650830FEF75FF820001C30FEF76C
:102DF0005BF820235D1B4A46414630006461E56173
:102E0000A462FDF7A7FD01235B42A363124B206080
:102E1000984510D0114B98450DD00A9B002B00D03F
:102E20001C60099B20006360FFF70CFE0120C0BC02
:102E3000B946B046F8BD0123E26B1343E363ECE708
:102E400001204042F3E73800FDF7AEFC012040428C
:102E5000EDE71F25C3E7C046711B001025150010C4
:102E6000484BF0B5574645469A469846464B4E461F
:102E700099460123DE465B42E0B59B460026434F60
:102E800083B030239C468020B44463460001019304
:102E9000FDF700FC051E5AD07C20FDF7FBFB041E4D
:102EA00058D07C22002102F095FC8022A521280028
:102EB0006563120102F08EFC354B019A23644423B2
:102EC0003449656BE254002345228C4620000721DB
:102ED000A3540A32A35465442363A36508308D4389
:102EE000FDF7E2FF20001C30FDF7DEFF202300226B
:102EF000E361414628006461A462FDF72BFD5B4657
:102F00002060A363D0451DD0C8451BD05B463C6004
:102F100020006360FFF796FD012108CF1E48B20034
:102F20009E63C8468350012E0AD1012918D01B4B3D
:102F30001B6803B0F0BCBB46B246A946A046F0BD34
:102F400001269EE70123E26B1343E363DEE70121E1
:102F50004942E2E72800FDF727FC01214942DCE76E
:102F600000F002FC0128E2D172B601220C4B524261
:102F70001A6000220B4B1E600B4B1A60FDF79CFD84
:102F8000D5E7C046711B001025150010940A0220D9
:102F900049444C45FC0700005C0700203802002033
:102FA000A40A0220CC0A0220000B0220F8B5CE466B
:102FB000474680B5FFF7DAFCD02109060B68494A7D
:102FC00099461368013B1360086847494B78013BF9
:102FD000DBB24B70002B09D1022444490B5CA343A4
:102FE0000B54BFF35F8F0121414B1960136800241C
:102FF000002B66D13F4B1B68002B62D03E4D2B68E7
:10300000002B48D03D4B3E4C984600239C462AE07E
:103010006146D962116801391160D86819699A69E5
:1030200081604860180057680830874254D01168A2
:10303000013911604246196B1268914201D942462A
:1030400011608A0052189200A71879688E68D960BA
:103050001E618E68706088609F61A3580133A35021
:103060002B68002B0DD0EB68DB68186A596ADA6AA6
:1030700081604860180057681C308742C8D1516091
:10308000C6E7204B1A681268002A27D01B68DB6845
:103090001A681D4B1A601D4B1D4D98461C684B4607
:1030A0009F00002C0AD00126FEF7ACFE002800D0BD
:1030B000EE51013C002CF7D143461C60EC59631ED5
:1030C0009C41144B1B68002B01D0FEF73DFB2000F8
:1030D000C0BCB946B046F8BD5160A8E70A4B013AFA
:1030E0001A60D8E7300A0220140A0220100A0220CF
:1030F0003C0100D0280A0220B80A0220380A022027
:103100007807002068070020A40A0220B40A0220E1
:103110000C0B0220CC0A0220044B10B518680028C2
:1031200000D110BDFFF742FFFBE7C046CC0A0220EA
:1031300070B5041E0AD0144D2B68002B1AD1002143
:103140002000FEF75FFA2B68002B0ED1D0231B0660
:103150001B680E4A9B009A58002A03D001210C4A92
:10316000995070BDFDF706FCFBE7FFF71FFF002835
:10317000ECD0F6E7FEF7DCFB00212000FEF742FA78
:103180002B68002BE2D0F0E7CC0A0220200A0220B4
:103190000C0B022080231B0642680B43816870B52C
:1031A0000360C4680369916081684A605A6882421A
:1031B00034D00022026120001A682169013A1A60A5
:1031C000E268A3699160216908304A605A688242C6
:1031D00026D01A68013A1A60124B226B19688A428B
:1031E00000D91A60930010499B189B00CD186A689B
:1031F0009668E2602661966870609060CA58A56122
:103200000132CA50FFF7B2FB2000FEF79BF9074BD3
:103210001B68002B01D0FEF797FA70BD5960C8E714
:103220005960D6E7380A022078070020CC0A02202D
:103230001B4B00201B6870B5002B00D170BDD02542
:103240002D06FDF7BBFB2C681649A2008B58002BFE
:1032500002D001338B50F1E7134B1A68002A0ED0CD
:10326000124ABFF35F8F0125114B1D70135D2B4375
:103270001355D0231B061C68A2008B58E9E70B4AA4
:10328000165DF60703D41D68002DEAD1FBE7084A56
:103290001378013313702C68A2008B58D9E7C0460D
:1032A000CC0A0220200A0220380100D0100A022095
:1032B000140A0220204B70B51B68002B37D0D02099
:1032C000000603681D499B005A58002A2FD0013A76
:1032D0005A50006883005A58002A28D1184A9C582E
:1032E000184A1378013BDBB21370002B08D101217F
:1032F000154D2B5C8B432B54BFF35F8F134B196021
:10330000D0231B0619685378013BDBB25370002BA6
:1033100009D102200C4A535C83435354BFF35F8F9F
:1033200001220B4B1A60FDF731FB002C00D170BD60
:10333000FDF720FBFBE7C046CC0A0220200A022052
:103340000C0B0220140A0220100A0220380100D0BF
:103350003C0100D0134B10B51B68002B20D0D024AB
:103360002406236810499B005A58002A18D0013AB5
:103370005A50226893005B58002B11D10B490B78EF
:10338000013BDBB20B70002B08D10121084CA35C80
:103390008B43A354BFF35F8F064B1960FDF712FBFD
:1033A00010BDC046CC0A0220200A0220140A0220C6
:1033B000100A0220380100D010B5EFF3108072B669
:1033C000D02109060B680D4A9B009B5880F310889A
:1033D000D869EFF3108472B60B689B009B5884F396
:1033E00010881C6BEFF3108372B6096889008A5845
:1033F00083F3108820231B1BD36110BD5C070020C2
:10340000D44BF0B5DE4657464E4645469846D24B1D
:10341000E0B59946D14B89B09A46D14B9B4643467D
:103420001B681C68002C00D1C9E0DB681C68FEF733
:103430006FFCFEF7DBFC4B461B680190834242D8D1
:103440004A461060844200D82CE10022019BE11A18
:103450005B461868FEF742F8FFF75EFE002800D1D1
:1034600012E11022002104A802F0B4F95B46002208
:10347000186804A9FDF72EFF0028D0D0049B019303
:10348000002B00DA8CE0069F7B69002B02D0381DF0
:10349000FDF732FDFEF7AAFC4B461B6801909842EF
:1034A00000D2ABE04B46019A1A60049B092BDDD891
:1034B000AC4A9B00D3589F46012293432732A35422
:1034C0002000236A984743461B681A68002A00D1E7
:1034D00088E0DB68DC681E68271D3800FDF70CFDFE
:1034E00028230422E35C1A42E6D0A3692461F5187C
:1034F000F6436560B3420AD82E00F643236A2000E3
:103500009847A3692461ED186560B342F4D9534626
:1035100039001868FDF7D8FCD2E728220123B85CEF
:1035200005990343BB54BA69019C8B187B603F61CA
:10353000A34200D9ABE0611A8A421BD8410700D5EB
:10354000E9E0012398432733F85438003B6A984751
:103550008CE7282101227B5C13437B54059B019956
:10356000BB615A187A603F618A4200D994E0002B0F
:1035700000D17BE75346391D1868FDF7A5FC75E7B8
:1035800028220121BB5C8B43BB546FE72823FB5CE3
:103590009A0700D49BE0012293432732BB5465E78E
:1035A000079B0193069B01990293059B0298039345
:1035B0009847049B0193002B00DA57E763E7FEF777
:1035C000A7FBFEF713FC4B461B68020001909842D4
:1035D00000D278E74B461A6053461B681A6853427C
:1035E0005A4133E75146424609681160524613601A
:1035F0004B46019A1A60FFF78FFD32E743461B687E
:103600001A68002A39D002970BE00122934327322F
:10361000A354236A2000984743461B681A68002A6F
:103620002AD0DB68DC681E68271D3800FDF764FCC3
:1036300028230422E35C1A42E7D0A3692461F51829
:10364000F6436560B3420AD82E00F643236A200091
:103650009847A3692461ED186560B342F4D95346D5
:1036600039001868FDF730FC236A2000984743466C
:103670001B681A68002AD4D1029F51464246096845
:103680001160524613600DE7FFF75CF9E9E6A142CD
:1036900002D9994200D851E74346391D1868FDF711
:1036A00013FCE3E6FFF738FD43461B68DB68DD6883
:1036B0002F1D3800FDF720FC2822AB5C59070AD4E7
:1036C00001218B43AB5428002B6A9847C9E6380088
:1036D000FDF76AF8CAE62300019C06E0E31A9A4265
:1036E00013D82B6A280098473300AA692D619E18C9
:1036F0006E60A642F2D9A34201D9B342F1D9434642
:1037000039001868FDF7E0FBDDE75346390018681B
:10371000FDF7DAFBD7E7019D07E0EB1A9A4213D8D1
:103720003B6A380098472300BA69D4187C603F612F
:10373000A542F2D29D4201D2A342F1D94346391D9E
:103740001868FDF7C1FB00E75346391D1868FDF7FF
:10375000BBFBFAE6640700209C0A022074070020E5
:10376000040B02202477001070B584B0FFF7FEF838
:10377000184C2368002B15D0FFF79CFD2368002010
:10378000002B0DD0144B8022029301235B42019346
:1037900020330093114900231148D200FFF796FA15
:1037A00004B070BD0F4E3000FDF772FB0E4D2800C7
:1037B000FDF76EFB0D4B00221E600D4B10210A2001
:1037C0001D60FDF79BFC20600028D5D00949FDF75E
:1037D0000FFED1E7040B0220080B022054770010E3
:1037E000013400103C0A0220500A02206407002025
:1037F000740700204C77001010B514001A00022343
:1038000084B05B420093054B0190029118686946B1
:1038100000230394FDF7C2FC04B010BD040B02208A
:10382000F8B5DE464E4657464546E0B58B460500A0
:103830000A991800160001F05BF90A9B6C001F0240
:10384000324B64199C46A4006444636881469F42DD
:1038500000D967602B1FDBB29846012B30D9C023FB
:1038600080229B01E31812011A60294BAD005959BF
:103870009A4600291BD1226876017240E0268023F7
:10388000164042465B01E3181E60012A30D98023AE
:1038900080229B01E31812011A6053464A46676072
:1038A0005A51F0BCBB46B246A946A046F8BD58697D
:1038B00001F01EF9431C5800C0180338FDD2DAE7A6
:1038C0005B46012BCBD1C02303229B01E3181A6076
:1038D000023AA3681A42FCD0E023226876015640DF
:1038E0001E4080230A4A5B019246E3181E60AD0029
:1038F0005A462168514003220A401A6001225B4661
:103900009A40A3681A42FCD0C1E7C046008000403C
:1039100018070020F0B546464F46D646C0B51F00F2
:10392000344B44009C462418A400644463688846D1
:103930001600FF2B02D880235B006360031FDBB2FD
:103940009A46012B30D9C02380229B01E318120133
:103950001A60294B85005959994600291BD12268C4
:1039600076017240E0268023164052465B01E31840
:103970001E60012A30D9802380229B01E3181201A6
:103980001A6080235B0063604B465F51E0BCBA461F
:10399000B146A846F0BD586901F0AAF8431C58008A
:1039A000C0180338FDD2DAE74346012BCBD1C02340
:1039B00003229B01E3181A60023AA3681A42FCD062
:1039C000E0232268760156401E4080230A4A5B01AC
:1039D0009146E3181E60850042462168514003224B
:1039E0000A401A60012342469340A2681342FCD069
:1039F000C1E7C0460080004018070020014B80004E
:103A0000C05870471807002070B5EFF3108C72B6DD
:103A10000D4D2B68002BFCD0BFF35F8F0724CB0824
:103A2000C618C05C01230C40A3401C0004400342A4
:103A300007D103433370BFF35F8F2C608CF3108882
:103A400070BD1000FCF708FE2C0100D0044A10786D
:103A5000431CDBB2172B00D9102313707047C046EC
:103A60003C02002010B50100024A0348FFF7CCFFDA
:103A700010BDC0465C770010100700200021044BE9
:103A8000044ABFF35F8F02C39342FAD17047C04626
:103A9000000100D0800100D010B54024084A830006
:103AA0009A181268C0005440C0222240054CA44617
:103AB00063441A60044B9C466044416010BDC0469C
:103AC00004C0014004D0014000400140054B064ABB
:103AD0001360064A136053609360D36013615361AF
:103AE000936170478080808000E400E004E400E09F
:103AF0001F2318401E3B8340002905D0C021044AE3
:103B00004900535013607047802201498B50FAE7F7
:103B100000E100E001228240034B1B6813405A1E63
:103B20009341D8B27047C04600E100E070B50D0087
:103B3000EFF3108672B60F4A1368002BFCD0BFF368
:103B40005F8F0D4B10309B6884001B590B4A9342CA
:103B500003D09D4201D000F0B1FE074B9B681D5180
:103B6000BFF35F8FBFF35F8F0022024B1A6086F3B3
:103B7000108870BD240100D000ED00E0CD010010E0
:103B8000F0B5DE4657464E464546E0B50C0083B0DC
:103B9000EFF3108972B65F4A1368002BFCD0BFF3B5
:103BA0005F8F5D4B9A68030010339F00D5595B4AC5
:103BB000904695423DD0A5424ED0594EAA1B2F2A81
:103BC00037D8584A93461268944601226146924675
:103BD000824011401F22104052468240924601917D
:103BE0008022514658468150BFF35F8FEFF3058224
:103BF0009346002A32D101232A009A4390688442D6
:103C000008D17CE04B005B189B00F3189868844255
:103C10002ED01A00062151560029F3DA84424DD0E5
:103C2000019B002B1FD0C02251463E4B52009950A1
:103C30001960394B9B68DD51BFF35F8FBFF35F8F16
:103C40000022344B1A6089F3108803B0F0BCBB46E5
:103C5000B246A946A046F0BD1500EAE79342CAD095
:103C600000F02CFEC7E7802351462E4AD150E0E7F2
:103C700006215956002922DB4A00501880003418CA
:103C80008046A0689860E079D87106202056987127
:103C9000002825DBA488F01A640524154444001983
:103CA000E0240005400D24022043988052181E4B4A
:103CB0009200B6181A781970B271B1E7130059461C
:103CC00000290FD1FF3191711849918016490A7866
:103CD0009A71174A9B1B5B415A43120D0A709FE76A
:103CE0001448E2E7144A1549D21A083A5002400D26
:103CF00001439980124952080A43DA8090E706216D
:103D0000515613000029B7DA5A46002AEAD145462F
:103D1000DCE7C046240100D000ED00E0CD0100103A
:103D20004002002000E100E01A0B022001BDFFFF6D
:103D3000AAAA000001BD00007A02002000F0FFFFE7
:103D400000F8FFFF10B58308040003202040FF2483
:103D5000054AC0009446844081409B0063441A6831
:103D6000A2430A431A6010BD00E400E070B50124CC
:103D70000443EFF30581EFF3108C72B6214A136808
:103D8000002BFCD0BFF35F8F1F4B05001F4AED1ABD
:103D90006D416A43120D1E4D8900AE6852B27658CD
:103DA000A6421CD00621595691421CD012215956C8
:103DB000914222D01E215956914220D02A21595693
:103DC0000324914210D0134B19781A708171BFF3FC
:103DD0005F8F00220B4B1A608CF3108870BDAB68AC
:103DE0000D4C5C50EFE700246100091989005B1855
:103DF000FF21997109499980E5E70124F4E702243C
:103E0000F2E7C046240100D040020020AAAA000028
:103E100000ED00E01A0B0220CD01001001BDFFFFF4
:103E2000024B9C46614489000160704740000034A9
:103E3000F0B5C646164D174E2C0000B5B54224D23B
:103E400000230127984623687F42002B11D0FFF7FB
:103E5000FDFD01002800FFF7E3FF43466760237282
:103E6000BFF35F8F0C34B4420FD223682500002BC0
:103E7000EDD1FFF7EBFD01002800FFF7D1FF6760F0
:103E8000BFF35F8F0834B442EFD380BCB846F0BDB7
:103E9000D8020020E8020020F0B5DE4657464E4624
:103EA0004546E0B585B0EFF30582032313409A0041
:103EB00011000392B64A5258904601229A40B54BDF
:103EC00091461A6031E043469B881BB2002B00DB11
:103ED0009DE043469B79002B00D0EFE04346082449
:103EE0001C5F002C00DA17E14246526963009446D9
:103EF0001B19DB0063449C68DD68631C00D113E17F
:103F0000A54B03999C4661449A6A0B69A01A9B1AB7
:103F1000984200D20C61A04800F0D2FA241A8D41D8
:103F2000002D00DDF8E000D12EE14B469A484363B6
:103F3000434608229B5E9A46002BC4DB42465269E8
:103F40005B0093465344DB009B445B469E68DF68FE
:103F500000F0B6FA801BB9410029B4DB002F00DA6B
:103F6000EDE05B468D4A1B69934200D1E0E041469B
:103F70005A460820085E5288000410435A46516988
:103F8000984704000D0023002B4300D1D7E0002DFB
:103F900000DBF0E0361BAF4134003D005B469C6027
:103FA000DD600021595E00298DDB43465B692200FC
:103FB0009C462B0048004018C00060448668C768D3
:103FC000921BBB41002B00DA7DE7434666460200A8
:103FD0000094019519810CE07B00DB19DB00F318DC
:103FE000009801999C68DD68001BA941002904DB49
:103FF0001A000023D75E002FEEDA5B461F8053467F
:10400000138043469B881BB2002B00DA61E74346CE
:104010001A69EFF3108172B61368002BFCD0BFF35E
:104020005F8F43469B8842461BB29A4601235B4200
:1040300093801369BFF35F8F00221A6081F31088A9
:104040005346002B00DA44E743465B699C4608234D
:1040500043449B4653465F0043465744FF000822B3
:104060009A5E67445E46BC68FD68002A19DB3B0027
:104070000094019567469C4604E01E000023F25E12
:10408000002A0BDB0098019953009B18DB00FB18FA
:104090009C68DD68001BA9410029EEDA6346BC4636
:1040A0001F005346338000217B5E3A809A46002BE6
:1040B000D0DA43469B79002B00D10FE7002342461C
:1040C0009371434646460821595E08364B1C23D05F
:1040D00047468C46556902E006004B1C17D04B0042
:1040E0005B18DB00E8180A00E95E43881BB2002B6E
:1040F000F2DA01235B42DC178360C4606245ECD0D6
:1041000031803B89944603803A814B1CE7D1644659
:10411000B846002C00DBE7E640BF05B0F0BCBB466C
:10412000B246A946A046F0BD6B1C00D0E8E6F2E618
:104130005B465C69200023699847002821D15B46D3
:1041400042461B8813811269EFF3108372B611681F
:104150000029FCD0BFF35F8F4246594652880A803F
:104160004246514651801269BFF35F8F00211160B2
:1041700083F31088A7E6084800F0A2F924184D41FF
:104180000CE765682468FEE6002C00D1CDE6C3E7A5
:104190004C0700203C70054000400540993E00104F
:1041A000074810B50268EFF3108172B61368002B50
:1041B000FCD0BFF35F8FFCF7ABFC0020002110BDEB
:1041C000040A002070B52E4C2569002D04D00A2168
:1041D0002C48FFF725FE70BD2B4E0321300000F068
:1041E00065F9E660FFF732FC284B03229C46D0239A
:1041F00022701B061B6801216370254B6044A3607D
:104200000F23800020610220638063694942A180FE
:1042100019800231198647311D83585218315A527C
:1042200075325C3999521832013199521832013184
:104230009952183201319952083518329D52023183
:10424000183299521832013199521832013199526B
:104250001832013199521832013199521832013114
:1042600099520C4B0C49DC6001303562FFF75EFC63
:1042700001210320FFF73CFC084B1D60A7E7C04667
:1042800088020020040A002000400540400000345D
:10429000FFFF10004C070020993E001038600540D9
:1042A00070B5C646010000B50469EFF3108C72B614
:1042B00020680028FCD0BFF35F8F02200D5E4869A4
:1042C0006C0080466419E4004444002D01DB208822
:1042D00048800869BFF35F8F002606608CF3108862
:1042E000002D30DBE36063880598013320615B04B7
:1042F00006985B0CA26060611A1C002B21D090B262
:104300002B04628018430A69EFF3108672B61368B3
:10431000002BFCD0BFF35F8F8B8823808D800B69CF
:10432000BFF35F8F00221A6086F310880B7801328A
:104330009A40CB6805498C4663441A6040BCB0463D
:1043400070BD0122DBE701204042F7E73C2000007E
:1043500010B543890A14934233DD53009B18426918
:10436000DB00944604696344EFF3108C72B6226854
:10437000002AFCD0BFF35F8F5A88090494B2090C5D
:104380008A4208D00369BFF35F8F00221A608CF362
:104390001088002010BD8022120214435C8001238B
:1043A00002698371BFF35F8F002111608CF3108865
:1043B000054902788C469340C2680120624413602C
:1043C000E8E70020E6E7C0463C200000F0B5CE4616
:1043D000474680B504000D0083B0EFF30587002F3A
:1043E0003BD12F4E81463378F26804339B00916AAB
:1043F0009B58421A5B1A9A420ED320BF294A0020CA
:10440000536AAB4203D3926A013091453CD803B062
:10441000C0BCB946B046F0BD00F05AF822002B00EF
:10442000121A8B41002B26DB1F4B22000093300019
:104430002B000197FFF734FF011E1CDD194BA84626
:104440005A6A954225D920BF3000FFF781FF154AEF
:104450000020536A9845DAD8D5E7124A0020536AFB
:104460008B42D4D3926A0130A242D0D2581A421E53
:104470009041C0B2CBE70B4A0020536AAB42C6D38F
:10448000926A01209145C2D9E81A421E9041C0B2F9
:10449000BDE79B6A9C42D7D99542D5D1D3E7C046A8
:1044A0008802002000400540A141001010B5024ADA
:1044B0000248FFF7A9FA10BD7C770010140700200E
:1044C0000300416A0A00986A596A8A42FAD1704721
:1044D000034B596A0A00986A596A9142FAD17047A7
:1044E0000040054070B504000D00124A536A1900DF
:1044F000966A536A8B42FAD13000190024184D4154
:10450000AB4211D80ED02B000A494A6A9A42FCD31A
:1045100007D1084A02E0516A994202D1916AA14248
:10452000F9D370BDA642EED9012301246442E517F8
:104530005B42E9E700400540F8B5040020481D0053
:1045400017000E0000F0D4FA0100380000F0D0FA95
:10455000069B29041B0319432368002B1EDB194B00
:10456000194DE21853425A4180235B019C461203C5
:10457000164B62441A60164B1A6017002B689F4353
:10458000FBD1144B2660E2182123A060136023683E
:10459000002BFCDA0823E1601360F8BD3F2322689A
:1045A0001340B342DBD1A3681B051B0D8342D6D158
:1045B000EE22E368D20213408B42D0D1EDE7C04631
:1045C000001BB7000040FDBF08C0004000E00040F5
:1045D00000F00040043000008023024A9B000B439F
:1045E000D362704700800540142310B5010018887D
:1045F00004331B88984710BD162310B50100188896
:1046000002331B88984710BDF8B54746CE4680B5A3
:104610000F1E19D0142399460433040000250126E7
:1046200098464B461888434621681B88984701C422
:10463000431E9841013540420640AF42F1D130005F
:10464000C0BCB946B046F8BD0126F8E7AA23064A21
:104650001B0113602F230549D360054B1960536874
:10466000002BFCDA7047C0460040024000B0FA0060
:1046700000600240F8B50E00EFF3108772B60C4BE5
:1046800084009B681D59A94205D00A4B9D420BD35B
:10469000094B9D4208D2064B9B681E51BFF35F8FAA
:1046A00087F310882800F8BD00F008F9F3E7C0464A
:1046B00000ED00E0C0010010CC01001003BDC046B9
:1046C00010B5040000F014F9A04710BDF0B50400C7
:1046D00087B00F200E001700FFF71CFA002105001D
:1046E0000F20FFF705FA0023002200920193012317
:1046F0000293D02304960594002600240121022071
:1047000003971B06002C14D01A6D1042FCD05C6578
:1047100040BF1A6D114203D120BF1A6D1142FBD068
:104720009A6DA2420AD000266C46B200A458E9E76E
:104730009A6D1A6D1142FBD140BFE5E70136052E97
:10474000F2D929000F20FFF7D3F907B0F0BDC0461A
:104750000B4B0C4A10B5934201D201235B420A4C29
:104760000A4A190092681851FF20A446C0001B5045
:10477000074B0848C85008486144FFF7A7FF10BD21
:104780000008042000000420F407000000ED00E011
:10479000FC070000C1460010BD460010F8B504003B
:1047A00006200D00FFF72AF9002842D0364B374982
:1047B000E21853425A418023DB039C469205344B56
:1047C00062441A60334B1A6010000B689843FBD1A7
:1047D0002D4B8021E3185A4253412F4A5B00490078
:1047E00099520620FFF70AF92900C00000F080F96D
:1047F0000130C3091ED1402701226262A362266BE9
:10480000F30722D4E36A254B0620E51800232B602A
:104810002663FFF7F3F83900800000F069F9702291
:10482000E36A5A407E2313402B601D4B236303230E
:10483000A364F8BD1B4A93421ED900231A4A1B4F9A
:104840006262A362266BF307DCD5194B144AE318A6
:104850001A60656AA26A0620AD01AD18FFF7CEF8AE
:10486000144900F045F9AD020100280000F040F9BC
:104870000021FFF737FEC5E74006800E9F011A00B2
:104880003F180300B9E7C0460080FCBF08C00040E5
:1048900000E0004000F00040080A00202C1000005A
:1048A00001030000FEFF0000FFFF0000C0FF3F000B
:1048B000303000004E0E00007047C04610B5014871
:1048C000FBF7CAFEA077001070B5074D074EB54242
:1048D00009D20024013E761BB60808CD9847230074
:1048E0000134B342F9D170BDD875001014760010B0
:1048F00070B5074D074EB54209D20024013E761B24
:10490000B60808CD984723000134B342F9D170BDF1
:104910000C76001014760010054B064A06491A6002
:10492000064A074B1A6010000B689843FBD170478A
:1049300000E00040BFCDFBFE08C00040FE7F3C0011
:1049400000F00040044BDB6C002B03D18022034BB2
:10495000D2021A607047C046000011504C2011501E
:10496000044A054B1A60054A1368DB018033FBD10A
:104970007047C046FFFFFF0100F0004008C0004044
:104980004022034B9A675A671A67DA667047C04637
:1049900000F0014010B5FFF771F810BD70B5044D7F
:1049A000044C2800C022A16800F01AFFA56070BD69
:1049B0000000002000ED00E0002310B5294C82B07B
:1049C000A367FFF743FE0122274B1A60636C012B9C
:1049D000FCD10322254B1A60224A936B012BFCD198
:1049E000013300930121224A22480433FFF7A4FD3A
:1049F000052301210093204A2048FFF79DFD002256
:104A0000022104201E4BFEF785FF00220121052014
:104A10001C4BFEF77FFF0022002107201A4BFEF7F8
:104A200079FF002200210820174BFEF773FF802337
:104A3000DB000093002200210920134BFEF7F0FE5B
:104A40000022104B00210620FEF764FF0420FEF731
:104A5000D5FF0E4900F04CF801000020FFF7BCFD27
:104A600002B010BD008000403CB0004030B00040BB
:104A7000002F685900800240008C864700C0024029
:104A8000001BB70040597307006CDC0240420F0066
:104A900001480421014B1847A002002009460010DC
:104AA000124A936F9B0815D29066D166002905D0F3
:104AB000FFE7FFE7FFE7516F106F704704B58021F4
:104AC0000906C2175140002800D0C84302F06CFD0F
:104AD000002104BDF0B5146E556E576F166FFFF7C9
:104AE000E3FF1466556657671667F0BD000000D0F7
:104AF000114A936F9B0813D210665166002905D0A6
:104B0000FFE7FFE7FFE7516F106F704704B500281C
:104B100001D00020C04302F047FD002104BDC04683
:104B2000F0B5146E556E576F166FFFF7E5FF1466FC
:104B3000556657671667F0BD000000D094464A4A94
:104B4000926F9208624601D228E0C046F0B5464E08
:104B5000346E756E776F366F00F020F89446424AD7
:104B600014665566576716676246F0BD94463E4A1E
:104B7000926F9208624601D254E0C046F0B53A4EB8
:104B8000346E756E776F366F00F04CF89446364A87
:104B900014665566576716676246F0BD002B24DB26
:104BA00011D000293EDA00B5C943404200D101319D
:104BB00000F038F8C943404200D10131DB43524292
:104BC00000D1013300BD002AEBD1002801D100291A
:104BD00005D00020C90FC90701D1C043410800B565
:104BE00002F0DAFC0022002300BD00B500290ADB38
:104BF000DB43524200D1013300F014F8C943404274
:104C000000D1013100BDC943404200D10131DB4335
:104C1000524200D1013300F005F8DB43524200D18B
:104C2000013300BD002923D1002B18D1002A0CD05C
:104C3000BC460D4F38667A6600210023FFE7FFE788
:104C4000FFE77A6F386F67467047002801D0074842
:104C5000010000B502F0A0FC0022002300BD02000C
:104C60000B00002000217047000000D0FFFFFFFF75
:104C7000002B00D0BFE0130C28D1002AE7D080B46D
:104C8000114F39667A66FFE7FFE730B4040C7B6F9B
:104C9000396F1B0423433B667A66FFE7FFE7FFE7B4
:104CA000C04684B27B6F3D6F1B0423433B667A662C
:104CB000FFE7FFE7C04600232C042D0C7A6F386F06
:104CC00000196941B0BC7047000000D0F0B59446AF
:104CD0000025140E01D112020835140F01D1120162
:104CE0000435940F01D192000235D40F01D1520046
:104CF0000135D40B0134254F7C66254C3C660E0CE7
:104D000093B2FFE7FFE7FFE73C6F6643360C77039C
:104D1000BE467343DF0B5B04C01AB941130C7343E7
:104D2000DB18C91ACE086643360CB64493B27343F7
:104D30001F0F1B01C01AB941130C73431F0B1B0536
:104D4000C01AB941860D8F023E436643360C092DC9
:104D500024DB520A7243801A7703460A6643360CF4
:104D600016235B1BDE40DF40BF1964466643821B8F
:104D70007046043506330100D940A840C01900D35D
:104D80000131A24206D20023F0BD0000000000D095
:104D9000FFFFFFFF121B0130F3D3F1E709277F1B51
:104DA000FE406446A2B27243801A00D20139220C3E
:104DB0007243130C1204821A99410B007046043599
:104DC00013370100F940A840801900D30131002BAE
:104DD00002D1A2420AD2F0BD013000D30131121B30
:104DE000FAD2013BF8D1A24200D2F0BD013000D38B
:104DF0000131121BF7E7F0B51C0C00D080E00CB4B9
:104E000000251C0A04D11B02160E3343120208357A
:104E10001C0B04D11B01160F3343120104359C0BEC
:104E200004D19B00960F334392000235DC0B02D174
:104E300092185B4101351C00971864410134464FBC
:104E40007C66464C3C660E0CFFE7FFE7FFE7C0467A
:104E50003C6F6643360C7703BE4697B27743C01B60
:104E600000D20139C01B00D201399FB27743C91B60
:104E7000C91B170C77437E04FF0B801BB941CE087A
:104E80006643360C0C2D33DBB644120B1F053A4338
:104E90001B0B97B27743C01B00D201399FB27743F7
:104EA000C91B170C77433E043F0C801BB941860D8C
:104EB0008F023E43664329277F1BFE400C3D774609
:104EC000AF40BF1930BCA2B2ABB272437343801A79
:104ED0009941220C7243130C1204801A994102006A
:104EE0000B000137001BA941F9D2781E0021F0BD4B
:104EF0000C277F1BFE4077467F0BAF40FF19E0E792
:104F000000245D1C07D0144F7D663966FFE7FFE77C
:104F1000FFE7FFE73C6F95B29EB265436643401BD7
:104F2000B141150C1E0C6543664336042F0C3E43FD
:104F30002D04401BB141994204D202000B00200015
:104F40000021F0BD01D19042F7D3801A994101347C
:104F50009942F2D3F6E70000000000D0FFFFFFFF08
:104F600048404140484018B41B4B5B68FC460193E5
:104F700008BD04DF0752001018B4174B1B68FC462D
:104F8000019308BD00DF115200109446134A926F3E
:104F9000920809D2624618B40F4BDB68FC460193B5
:104FA00008BD0CDFC95400100C4AF0B5146E556EE4
:104FB000576F166F6246FFF7EEFF084A1466556694
:104FC00057671667F0BD18B4034B9B68FC46019306
:104FD00008BD08DF6D53001068040020000000D0F9
:104FE000FFB550404240504059404B40594000E0CE
:104FF000FFB5154F4C00640D03D0BC4204D10C0327
:1050000014D80020090D09055C00640D03D0BC42D2
:1050100004D11C030AD800221B0D1B0501264B409E
:1050200009D44B4003D58B4200D18242FFBD994247
:10503000FCD19042FFBD0B43DB1803431343F5D073
:10504000C9434918FFBD0000FF07000000B5FFF786
:10505000CFFF804100BDC04600B5FFF7C9FF01D9B1
:10506000002000BD012000BD00B5FFF7B9FF01D948
:10507000002000BD012000BD00B5FFF7B1FF804159
:1050800000BD012040054A00121804D85A00121829
:1050900001D800207047012070470000002100283F
:1050A00005D17047C1174840401AFAD0C90713B557
:1050B000064B1B6898470CBC441CA2401005120B01
:1050C0000349091B09051943114310BD000A0020BB
:1050D0001F04000010B54C00620D8023D218DB00C5
:1050E000D21A5B057E2A10DD9E3A13DACC1709032B
:1050F000490819435242D140640001341532202A34
:1051000005DAD0400843604310BD002010BD0846BA
:10511000604310BDC80FC018013810BD18B4044B4F
:105120005B6AFC46019308BD24DF7956001000003D
:1051300068040020132370B51D78012D19D014DDEB
:105140001E48FFF759FA06001D48FFF755FA1D4C97
:1051500080223100200000F043FB022D06D01A48C7
:10516000FFF742FA194B186070BD164C184BA36438
:10517000F5E7174B134C23606360A360E360236182
:105180006361A361E36123626362A362E3622363F9
:105190006363A363E36323646364A364E3642365D9
:1051A0006365A365E36523666366A366E3662367B9
:1051B0006367A367E367A364D1E7C0465344000075
:1051C00053460000680400204C330000000A002011
:1051D000D551001007B5604601880A0A0230DF2A5F
:1051E000FAD1C9B2820804D302884088000410436F
:1051F00000E00068014A5050039007BD6804002099
:105200000FB403BC0CBCF0B50124E407634000E01C
:10521000F0B50C0DCF0F661E3605891B640503D350
:10522000C943404200D30131640D03D0661CF60A25
:1052300007D0E41B00207F00791C89078912803C7D
:1052400024031D0DDF0F6E1E36059B1B6D0503D35A
:10525000DB43524200D301336D0D03D06E1CF60ABE
:1052600007D0ED1B00227F007B1C9B079B12803D1B
:105270002D032F1B661B58D4A446202E46DA203758
:105280001400BC401D00BD40F24033412A43801849
:105290005941CB0F05D0C943C0430022644250415D
:1052A000514162464D0D28D10D0D07D100281FD068
:1052B000241940414941013A0D0DF9D0640006D34B
:1052C000013000D30131002C01D140084000013AE7
:1052D0000BD4941CE40A04D112051144DB071944D1
:1052E000F0BDD907204B194300E0D9070020F0BDDD
:1052F0000029DDD1002CDBD1F0BD0132C60740080A
:10530000CD0728434908002EE1D0D9E73C2E29DA01
:10531000203E40371400BC4000D00124F24014432A
:105320001A00BB401C43D317ACE7AC46202F08DA69
:1053300020360400B4400D00B540F8403941284300
:10534000A5E73C2F0CDA203F40360400B44000D0E3
:105350000124F84004430800B1400C43C117EAE7B8
:1053600010001900002494E70000F07FF0B50C0D48
:10537000661E3605891BE60A6405640D02D0651CAD
:10538000ED0A04D0002001210905803C2403A44635
:105390001C0D671E3F05DB1BE70A6405640D02D088
:1053A000651CED0A04D0002201231B05803C240368
:1053B0007740644497B484B296B27443070C7E433A
:1053C000150C6F4380B26843361802D301200004E5
:1053D0003F183004350C00197D41844688B29AB2DA
:1053E00050430C0C62431F0C7C438EB27E439219D7
:1053F00002D301263604A4191604170C3618674187
:1054000001BC81B29AB25143040C62431B0C5C4351
:1054100080B25843121802D301200004241810044B
:10542000130C401863412D185E410020474106BC13
:1054300088B293B258430C0C6343120C544389B2A4
:1054400051435B1802D301210904641819041A0C92
:10545000091862416D1856410020474118BCF902F5
:10546000720D1143F0026A0D1043ED020A0D03D1D3
:105470006D1940414941013B124E9B1B7600B342DE
:105480000ED26D0007D301300026714166463543C8
:1054900001D1400840001B05C918E4072144F0BDB4
:1054A0000BDA013306D1013004D101314F0D01D0A7
:1054B0004908F2E7E1070020F0BD01363105002080
:1054C000EBE70000FF030000F0B51C0D671E3F0571
:1054D000DB1BE70A6405640D02D0661CF60A04D0E3
:1054E000002201231B05803C2403D0252D06002625
:1054F000F6432E661E096E66CE0FF619B4464900B5
:105500004F0D02D07E1CF60A03D000200021403F40
:105510003F033E1BB600B444013F7F05C91B490849
:105520002E6F013676089C02950D25437543ED13C9
:105530007543AD1301356D10F603761B0CB4CC0228
:10554000450D2C43A2B2B3B25A43270C7B43350C12
:105550006F43A4B26C431B1902D3012424043F19E6
:105560001C041D0CA4187D4124196D41009A91B2B0
:10557000ACB26143170C7C432B0C5F4392B25A438D
:10558000A41802D301221204BF182204230C5218BB
:105590007B41019C6C431B19520ED9010A43440103
:1055A000A01A81B2B2B2514303145A43360C73436A
:1055B00087B27743D617D21900277E4136049B194C
:1055C0001704160C7F185E417316ED18F3010026C0
:1055D00080337541A90F06D16400690AE8055B0AAA
:1055E000184309D22FE00422944480337541A90A5C
:1055F000A8059B0A184326D3404149412404009A38
:10560000019B0D005543641B4343E41A95B286B2D7
:105610007543170C7E43030C5F4392B25A43B6188E
:1056200002D301221204BF183204330C52197B41F9
:1056300052429C41002C02D40022013051414008CA
:10564000CA071043490802B06246D7079210084BB8
:10565000D218084B9A4203D212058918C919F0BD15
:105660000020002A01DC3900F0BD01331905F5E7FF
:10567000FD030000FE070000002200B5203200F00C
:1056800004F8080000BD000000220B150AD410B574
:10569000944600F031F81414013400DA0021CB17DD
:1056A000144C20470020002170476244343A0CD447
:1056B0000C2A07DA04009140904052422032D44034
:1056C000214310BDD843D94310BD203207D40C4626
:1056D0009440524220321141D040204310BD080076
:1056E000C917203203D452422032104110BD180095
:1056F000190010BDAB5600100A0DCC0F531E1B0530
:10570000C91A520503D3C943404200D30131520D97
:1057100003D0531CDB0A07D0121B00206400611C5D
:1057200089078912803A1203014BD21A7047000090
:10573000FF030000132310B512481C78FEF75CFF2E
:105740000100012C0AD003DD80220F4800F048F848
:105750000E48FEF749FF0E4B186010BD0A4C54224C
:10576000200000F03DF80B4B6365A365E3652366FD
:105770006366A366E36623676367A367E3672362E1
:10578000E361E5E753460000680500204C33000064
:10579000000A00209957001007B5604601880A0AE0
:1057A0000230DF2AFAD1C9B2820804D302884088C5
:1057B0000004104300E00068014A5050039007BD08
:1057C0006805002001480421014B1847B002002061
:1057D00009460010014B1B6818470000B00200206A
:1057E000014B5B6818470000B00200207047C046BC
:1057F000F8B557464E464546DE46E0B599460A9B03
:1058000007009A460D9B8846934615000B9E9B0702
:1058100010D10C9B9E420DD29D1B14000E005D44C6
:1058200022004B46013431002020B847A542F7D171
:10583000B0460B9E002E27D0444675195346AA1B2E
:10584000013E985D21004B46B847002EF6D123005B
:105850002C0098460D9B9B070FD55B46E51A0C9BC9
:10586000AB420AD94646984622004B4631002020DA
:105870000135B8470134A845F6D82000F0BCBB4636
:10588000B246A946A046F8BD2C00E3E7F0B54F4666
:105890004646D646C0B584B098460EAB1B78129FDC
:1058A000994694460D9C109B119EBA0725D4002E54
:1058B0004BD19C4200D3BFE001223A4092461F2CBC
:1058C00000D9B8E00C9A551E302201E0202C03D0FC
:1058D00001342A55A342F9D85246002A0DD0A642D7
:1058E0000BD9202C44D00C9A551E302201E0202CDC
:1058F0003ED001342A55B442F9D1FA064DD57A0585
:105900003FD4002C39D10F9B102B00D179E00F9B95
:10591000022B00D18AE030230C9A012413704B46ED
:10592000002B3FD02D230C9A135501340C9B62465B
:1059300000930397434602960194FFF759FF04B082
:10594000E0BCBA46B146A846F0BD012215003D4074
:10595000AA463A422FD04A46002A02D10C323A4295
:1059600000D0013E9C42BAD21F2CABD9202E27D9A1
:105970002024FA06DAD57A0503D4A3422DD0A64214
:105980002BD00F9B102B32D0022B20D0202CCDD02F
:1059900030220C9B1B191A700134202CC6D04B46A8
:1059A000002BBFD17B070DD43B07BFD520230C9A1A
:1059B00013550134BAE79C429FD21F2C00D881E7CF
:1059C00020249AE72B230C9A13550134AEE7202CA0
:1059D000ACD00C9B1B1901343AE0631E012C92D011
:1059E0000F9A102A2AD0022A2FD01C00D0E7BB061B
:1059F0000ED4202C9AD00C9B1A19013478231370E2
:105A0000C4E7BB060DD478230C9A01241370BFE7BA
:105A1000202C00D18AE758220C9B1B191A700134E4
:105A2000B4E758230C9A01241370B1E70C9A603341
:105A300001241370ACE7202400265EE7023CBA067E
:105A4000E9D40C9A12191C00D8E70C9A92465344D8
:105A500062221A709AE7C04610B5002800D110BD26
:105A600001F0F4FAFBE7C0460B0010B5002802D0A5
:105A700049681B68984710BDF0B5DE4657464E464C
:105A80004546E0B59BB09B46249B89469846259B9E
:105A90000B900C924046424619009A46FFF7F1FAE5
:105AA000002800D0D8E0012240465146774B5242B0
:105AB000FFF7E2FA002800D0CEE00122404651462E
:105AC000734B5242FFF7C2FA002800D0C4E0002214
:105AD000002340465146FFF7B9FA002800D0B9E14B
